:100000002CF30020CDF40100250D060085F401003D
:1000100085F4010085F4010085F4010085F40100F8
:1000200000000000000000000000000015E30100D7
:1000300085F401000000000069E2010085F4010080
:10004000C1E30100C1E30100C1E30100C1E301001C
:10005000C1E30100C1E30100C1E30100C1E301000C
:10006000C1E30100C1E30100C1E30100C1E30100FC
:10007000C1E30100C1E30100C1E30100C1E30100EC
:10008000C1E30100C1E30100C1E30100C1E30100DC
:10009000C1E30100C1E30100C1E30100C1E30100CC
:1000A000C1E30100C1E30100C1E30100C1E30100BC
:1000B000C1E30100C1E30100C1E30100C1E30100AC
:1000C000C1E30100C1E30100C1E30100C1E301009C
:1000D000C1E30100C1E30100C1E30100C1E301008C
:1000E000C1E30100C1E30100C1E30100C1E301007C
:1000F000C1E30100C1E30100C1E30100C1E301006C
:10010000C1E30100C1E30100C1E30100C1E301005B
:10011000C1E30100C1E30100C1E30100C1E301004B
:10012000C1E30100C1E30100C1E30100C1E301003B
:10013000C1E30100C1E30100C1E30100C1E301002B
:10014000C1E30100C1E30100C1E30100C1E301001B
:04015000C1E3010006
:04015400FFFFFFFFAB
:1001580081F0004102E000BF83F0004330B54FEA70
:1001680041044FEA430594EA050F08BF90EA020FDD
:100178001FBF54EA000C55EA020C7FEA645C7FEA70
:10018800655C00F0E2804FEA5454D4EB5555B8BF93
:100198006D420CDD2C4480EA020281EA030382EA04
:1001A800000083EA010180EA020281EA0303362D96
:1001B80088BF30BD11F0004F4FEA01314FF4801C69
:1001C8004CEA113102D0404261EB410113F0004F7B
:1001D8004FEA03334CEA133302D0524263EB430332
:1001E80094EA050F00F0A780A4F10104D5F1200ED0
:1001F8000DDB02FA0EFC22FA05F2801841F100012B
:1002080003FA0EF2801843FA05F359410EE0A5F1FE
:1002180020050EF1200E012A03FA0EFC28BF4CF02F
:10022800020C43FA05F3C01851EBE37101F00045E5
:1002380007D54FF0000EDCF1000C7EEB00006EEBF2
:100248000101B1F5801F1BD3B1F5001F0CD349087C
:100258005FEA30004FEA3C0C04F101044FEA4452D3
:1002680012F5800F80F09A80BCF1004F08BF5FEA5A
:10027800500C50F1000041EB045141EA050130BD3A
:100288005FEA4C0C404141EB0101013C28BFB1F54C
:10029800801FE9D291F0000F04BF01460020B1FA97
:1002A80081F308BF2033A3F10B03B3F120020CDA6A
:1002B8000C3208DD02F1140CC2F10C0201FA0CF048
:1002C80021FA02F10CE002F11402D8BFC2F1200CAD
:1002D80001FA02F120FA0CFCDCBF41EA0C01904063
:1002E800E41AA2BF01EB0451294330BD6FEA0404AC
:1002F8001F3C1CDA0C340EDC04F11404C4F1200297
:1003080020FA04F001FA02F340EA030021FA04F3A8
:1003180045EA030130BDC4F10C04C4F1200220FAFF
:1003280002F001FA04F340EA0300294630BD21FA3D
:1003380004F0294630BD94F0000F83F4801306BF03
:1003480081F480110134013D4EE77FEA645C18BFF7
:100358007FEA655C29D094EA050F08BF90EA020F8E
:1003680005D054EA000C04BF1946104630BD91EA86
:10037800030F1EBF0021002030BD5FEA545C05D189
:100388004000494128BF41F0004130BD14F58004C8
:100398003CBF01F5801130BD01F0004545F0FE413C
:1003A80041F470014FF0000030BD7FEA645C1ABF71
:1003B800194610467FEA655C1CBF0B46024650EAA8
:1003C800013406BF52EA033591EA030F41F40021D4
:1003D80030BD00BF90F0000F04BF0021704730B55A
:1003E8004FF4806404F132044FF000054FF000012F
:1003F80050E700BF90F0000F04BF0021704730B5F0
:100408004FF4806404F1320410F0004548BF4042C4
:100418004FF000013EE700BF42004FEAE2014FEA19
:1004280031014FEA02701FBF12F07F4393F07F4FF4
:1004380081F06051704732F07F4208BF704793F0F7
:100448007F4F04BF41F40021704730B54FF460740A
:1004580001F0004521F000411CE700BF50EA01020D
:1004680008BF704730B54FF000050AE050EA0102B6
:1004780008BF704730B511F0004502D5404261EB26
:1004880041014FF4806404F132045FEA915C3FF467
:10049800D8AE4FF003025FEADC0C18BF03325FEA04
:1004A800DC0C18BF033202EBDC02C2F1200300FAB5
:1004B80003FC20FA02F001FA03FE40EA0E0021FADA
:1004C80002F11444BDE600BF70B54FF0FF0C4CF4C8
:1004D800E06C1CEA11541DBF1CEA135594EA0C0F7A
:1004E80095EA0C0F00F0DEF82C4481EA030621EAB5
:1004F8004C5123EA4C5350EA013518BF52EA0335F0
:1005080041F4801143F4801338D0A0FB02CE4FF0A1
:100518000005E1FB02E506F00042E0FB03E54FF0D1
:100528000006E1FB03569CF0000F18BF4EF0010EC9
:10053800A4F1FF04B6F5007F64F5407404D25FEAC5
:100548004E0E6D4146EB060642EAC62141EA555178
:100558004FEAC52040EA5E504FEACE2EB4F1FD0CBA
:1005680088BFBCF5E06F1ED8BEF1004F08BF5FEA38
:10057800500E50F1000041EB045170BD06F00046EA
:1005880046EA010140EA020081EA0301B4EB5C0497
:10059800C2BFD4EB0C0541EA045170BD41F480118F
:1005A8004FF0000E013C00F3AB8014F1360FDEBFB4
:1005B800002001F0004170BDC4F10004203C35DA90
:1005C8000C341BDC04F11404C4F1200500FA05F313
:1005D80020FA04F001FA05F240EA020001F00042B4
:1005E80021F0004110EBD37021FA04F642EB06012A
:1005F8005EEA430E08BF20EAD37070BDC4F10C0454
:10060800C4F1200500FA04F320FA05F001FA04F217
:1006180040EA020001F0004110EBD37041F1000103
:100628005EEA430E08BF20EAD37070BDC4F120050E
:1006380000FA05F24EEA020E20FA04F301FA05F276
:1006480043EA020321FA04F001F0004121FA04F21E
:1006580020EA020000EBD3705EEA430E08BF20EAEE
:10066800D37070BD94F0000F0FD101F00046400028
:1006780041EB010111F4801F08BF013CF7D041EAAA
:10068800060195F0000F18BF704703F000465200AE
:1006980043EB030313F4801F08BF013DF7D043EA7F
:1006A8000603704794EA0C0F0CEA135518BF95EA35
:1006B8000C0F0CD050EA410618BF52EA4306D1D1BC
:1006C80081EA030101F000414FF0000070BD50EADB
:1006D800410606BF1046194652EA430619D094EA65
:1006E8000C0F02D150EA013613D195EA0C0F05D14F
:1006F80052EA03361CBF104619460AD181EA0301A3
:1007080001F0004141F0FE4141F470014FF000005A
:1007180070BD41F0FE4141F4780170BD70B54FF0F5
:10072800FF0C4CF4E06C1CEA11541DBF1CEA135575
:1007380094EA0C0F95EA0C0F00F0A7F8A4EB050457
:1007480081EA030E52EA03354FEA013100F088804E
:100758004FEA03334FF0805545EA131343EA126317
:100768004FEA022245EA111545EA10654FEA0026CC
:100778000EF000419D4208BF964244F1FD0404F585
:10078800407402D25B084FEA3202B61A65EB0305E1
:100798005B084FEA32024FF480104FF4002CB6EB9E
:1007A800020E75EB030E22BFB61A754640EA0C001E
:1007B8005B084FEA3202B6EB020E75EB030E22BF5E
:1007C800B61A754640EA5C005B084FEA3202B6EB9F
:1007D800020E75EB030E22BFB61A754640EA9C005E
:1007E8005B084FEA3202B6EB020E75EB030E22BF2E
:1007F800B61A754640EADC0055EA060E18D04FEAEC
:10080800051545EA16754FEA06164FEAC30343EA8B
:1008180052734FEAC2025FEA1C1CC0D111F4801F58
:100828000BD141EA00014FF000004FF0004CB6E751
:1008380011F4801F04BF01430020B4F1FD0C88BFF0
:10084800BCF5E06F3FF6AFAEB5EB030C04BFB6EBFB
:10085800020C5FEA500C50F1000041EB045170BDEE
:100868000EF0004E4EEA113114EB5C04C2BFD4EB1B
:100878000C0541EA045170BD41F480114FF0000E9F
:10088800013C90E645EA060E8DE60CEA135594EA1B
:100898000C0F08BF95EA0C0F3FF43BAF94EA0C0F1E
:1008A8000AD150EA01347FF434AF95EA0C0F7FF493
:1008B80025AF104619462CE795EA0C0F06D152EAE7
:1008C80003353FF4FDAE1046194622E750EA4106CB
:1008D80018BF52EA43067FF4C5AE50EA41047FF4DC
:1008E8000DAF52EA43057FF4EBAE12E74A0011D28E
:1008F80012F5001211D20DD56FF47873B3EB625272
:100908000ED44FEAC12343F0004343EA505323FA7D
:1009180002F070474FF00000704750EA013002D1F2
:100928004FF0FF3070474FF0000070474FEA410228
:10093800B2F1E04324BFB3F5001CDCF1FE5C0DD935
:1009480001F0004C4FEAC0024CEA5070B2F1004F7F
:1009580040EB830008BF20F00100704711F0804F82
:1009680021D113F13872BCBF01F00040704741F447
:1009780080114FEA5252C2F11802C2F1200C10FA4B
:100988000CF320FA02F018BF40F001004FEAC1232F
:100998004FEAD32303FA0CFC40EA0C0023FA02F3D3
:1009A8004FEA4303CCE77FEA625307D150EA0133A9
:1009B8001EBF4FF0FE4040F44000704701F0004079
:1009C80040F0FE4040F40000704700BF53B94AB9F8
:1009D800002908BF00281CBF4FF0FF314FF0FF303F
:1009E80000F02AB8ADF1080C6DE904CE00F003F967
:1009F800DDF804E0DDE9022304B07047D0B5002239
:100A08000B4B06460F46FFF75FFDFFF76FFF0446E7
:100A1800FFF7E0FC0022074BFFF756FD02460B46A6
:100A280030463946FFF798FBFFF760FF2146D0BDF7
:100A38000000F03D0000F041704700BF4FF0FF3C60
:100A480006E000BF4FF0010C02E000BF4FF0010CC0
:100A58004DF804CD4FEA410C7FEA6C5C4FEA430C39
:100A680018BF7FEA6C5C1BD001B050EA410C0CBF88
:100A780052EA430C91EA030F02BF90EA020F0020EA
:100A8800704710F1000F91EA030F58BF994208BF51
:100A980090422CBFD8176FEAE37040F0010070470E
:100AA8004FEA410C7FEA6C5C02D150EA013C07D165
:100AB8004FEA430C7FEA6C5CD6D152EA033CD3D0B0
:100AC8005DF8040B704700BF8446104662468C46AA
:100AD8001946634600E000BF01B5FFF7B7FF0028DD
:100AE80048BF10F1000F01BD4DF808EDFFF7F4FF06
:100AF8000CBF012000205DF808FB00BF4DF808ED91
:100B0800FFF7EAFF34BF012000205DF808FB00BFB3
:100B18004DF808EDFFF7E0FF94BF012000205DF8D5
:100B280008FB00BF4DF808EDFFF7CEFF94BF01208A
:100B380000205DF808FB00BF4DF808EDFFF7C4FF83
:100B480034BF012000205DF808FB00BF4FEA410CCC
:100B58007FEA6C5C02D150EA013C0AD14FEA430CAF
:100B68007FEA6C5C02D152EA033C02D14FF00000EC
:100B780070474FF0010070474FEA410212F500122A
:100B880015D211D56FF47873B3EB625212D94FEACC
:100B9800C12343F0004343EA505311F0004F23FAB6
:100BA80002F018BF404270474FF00000704750EA0B
:100BB800013005D111F0004008BF6FF000407047C8
:100BC8004FF00000704700BF38B5002200230446EC
:100BD8000D46FFF793FF28B920462946BDE838405F
:100BE800FFF70CBF204605F10041FFF707FF404221
:100BF80061EB410138BD2DE9F04F099E88468E46CC
:100C0800154604461946002B40F0C6804245B2FA04
:100C180082F746D94FB1C7F1200C08FA07F3BD4057
:100C2800BC4020FA0CFC4CEA030E4FEA15481FFAA8
:100C380085FC220CBEFBF8F908FB19E309FB0CFA4A
:100C480042EA03439A4528D9EB1809F1FF3004D248
:100C58009A4502D9A9F102002B44A3EB0A03A4B2D6
:100C6800B3FBF8F208FB123302FB0CFC44EA034422
:100C7800A44514D92C1902F1FF3303D2A44501D994
:100C8800931E2C44A4EB0C0443EA00401EB1FC4024
:100C9800002334607360BDE8F08F4846DDE71346F3
:100CA800F0E702B9FFDE8FBBA8EB020301214FEA90
:100CB800154EAAB2200CB3FBFEFC0EFB1C330CFB3A
:100CC80002F840EA0343984562D9EB180CF1FF306B
:100CD80004D2984502D9ACF102002B44A3EB0803D7
:100CE800A4B2B3FBFEFC0EFB1C330CFB02F244EA7D
:100CF8000344A2424ED92C190CF1FF3304D2A2426C
:100D080002D9ACF102032C44A41ABDE7C7F1200CA8
:100D1800BD4008FA07F3BC4028FA0CF94FEA154E13
:100D280020FA0CFC4CEA0302ABB2B9FBFEFC110C36
:100D38000EFB1C900CFB03F841EA0040804523D9C8
:100D480028180CF1FF3104D2804502D9ACF1020118
:100D58002844A0EB080092B2B0FBFEFC0EFB1C007E
:100D68000CFB03F842EA004398450FD9EB180CF145
:100D7800FF3204D2984502D9ACF102022B44A3EB0E
:100D8800080342EA014192E76146E2E76246F6E774
:100D98006046A3E76346B7E7434505D90EB1C6E900
:100DA80000080021084676E7B3FA83FCBCF1000F7F
:100DB80010D1434501D382420AD8841A68EB030351
:100DC80001209E46002E68D0C6E9004E002162E749
:100DD8006046F7E7CCF1200E03FA0CF302FA0CF5A3
:100DE80000FA0CF722FA0EF428FA0EFB20FA0EF19C
:100DF8001C4308FA0CF34FEA14491943A3B20A0C2E
:100E0800BBFBF9F809FB18BB08FB03FA42EA0B42E3
:100E180092453ED9A21808F1FF3004D2924502D972
:100E2800A8F102002244A2EB0A0289B2B2FBF9F847
:100E380009FB182208FB03F341EA024293422AD92C
:100E4800A21808F1FF3104D2934202D9A8F1020195
:100E5800224441EA0040D21AA0FB059842454B467D
:100E6800414602D306D14F4504D20138B9EB0503F8
:100E780068EB04018EB1FC1A62EB010707FA0EFE5B
:100E880024FA0CF327FA0CF74EEA0303C6E90037F5
:100E98009CE74046C7E74146DBE73146FBE670B4CE
:100EA800840746D04C1E002941D0D5B2034602E043
:100EB800611EE4B30C4603F8015B9907F8D1032CD3
:100EC8002ED9D5B245EA05250F2C45EA054519D98D
:100ED800264603F11001103E0F2E41F8105C41F830
:100EE8000C5C41F8085C41F8045C01F11001F2D88F
:100EF800A4F1100121F00F0104F00F041031032CAC
:100F08000B440DD91E4621460439032946F8045BD3
:100F1800FAD8211F21F0030104310B4404F0030423
:100F28002CB1D2B21C4403F8012BA342FBD170BCF4
:100F380070470C460346C2E710F8012B11F8013B35
:100F4800012A28BF9A42F7D0D01A7047034613F8EF
:100F5800012B002AFBD1181A013870470000000045
:100F680070B52DED028B82B0044629B1C4EBC403E1
:100F7800334A02EBC3039961C4EBC403304A12F845
:100F88003330304803700EF0E3FF18B102B0BDEC07
:100F9800028B70BD0DF106005DF0DEF80028F5D17A
:100FA800BDF8060040F4806080B2ADF806005DF040
:100FB800CDF80028EAD1244D28780FF05BF830EE00
:100FC800008A224E30780FF023F907EE900AF8EEE7
:100FD800E77A67EE887A17EE900AFFF71DFA16A3EC
:100FE800D3E90023FFF770FA41EC100B00F034F856
:100FF80051EC100BFFF77AFC154B1870C4EBC400CA
:101008000F4B03EBC000337843702B788370C370A9
:101018000723037101305DF062F80028B6D1094852
:101028000EF0A6FF0028B1D10123A340094A147885
:101038001C431470AAE700BF9A9999999999F13FAE
:10104800BC04002004860020B20D0020B10D002051
:1010580017A2002015A2002051EC100B2DE9F04139
:10106800C1F30A570C4610EE105A10EE108AA7F278
:10107800FF36132E31DC002E12DA35A3D3E9002314
:10108800FFF76CF800220023FFF756FD28B1002C6B
:1010980056DB2C4358D000252F4C2146284626E005
:1010A8002E4F374101EA0703034320D028A3D3E991
:1010B8000023FFF753F800220023FFF73DFD002827
:1010C800EBD0002C4FF00005C2BF4FF4801343FA59
:1010D80006F6A41924EA0704DFE7332E0BDDB6F57C
:1010E800806F04D110EE102A0B46FFF737F841EC59
:1010F800100BBDE8F081A7F213474FF0FF3323FA36
:1011080007F70742F3D012A3D3E90023FFF726F825
:1011180000220023FFF710FD0028BED0002C02DDBE
:10112800142E03D1013425EA0705B6E70123C6F1D9
:10113800340603FA06F63544454538BFE418F2E7A5
:1011480000254FF00044A8E72546A6E7AFF3008046
:101158009C7500883CE4377E0000F03FFFFF0F00DD
:101168002DE9F04F1F460023044688464FF0000A39
:101178004FF0000B2DED028B9DB018939F4B1392EF
:101188001B6818460593FFF7E1FE0546CDF85C801D
:10119800179B1A782B2A4ED03BD80D2A34D8082A08
:1011A80034D8002A3ED000230A93179E3378302B78
:1011B80040F0B080737803F0DF03582B68D10A9BA6
:1011C80017A902972046019318AB8D4A009319ABD3
:1011D8005BF044FD10F00707054605D0062F2CD11B
:1011E8000136002317960A93139B002B40F08E8537
:1011F8000A9BEBB152460BF1004343EC102B1DB098
:10120800BDEC028BBDE8F08F202ACCD101331793B7
:10121800BEE72D2AC7D101220A925A1C17925B7881
:10122800002BC2D1139BCDF85C80002B40F06C855D
:1012380052465B46E1E70022EEE7189A3AB13521BB
:101248001AA869F0B8F8189920465BF0DDFF013F4D
:10125800042F06D8DFE807F00A0314170A00DDE9AF
:101268001AAB2807C0D54BF0004BBDE7DDE91AA340
:10127800199A23F4801302F2334243EA025BF0E73F
:10128800DFF880B1EDE76FF0004B4FF0FF3AE8E789
:10129800179B5A1C17925B78302BF9D0002BA3D0E0
:1012A80001234FF0000904930A22179B4F46CDF8FB
:1012B8001C90089317980678A6F13003D9B209292B
:1012C8002AD92A46059968F010FDA0B300203246B5
:1012D8003D4603460590652A01D0452A18D11DB917
:1012E800049A02439ED00025DDF85C8008F10102D3
:1012F800179298F801202B2A75D02D2A7BD04FF011
:10130800000CA2F13001092940F28280CDF85C80FE
:1013180000269DE00023C4E7082F00F1010007F133
:101328000107D4BF079902FB09391790DCBF02FBFC
:1013380001330793BEE7179B5A1917925A5D002F7E
:1013480036D03D460590A2F13003092B12D901236E
:10135800C1E7179B01305A1C17925A78302AF8D0E7
:10136800A2F13103082B00F2D68405900020179BC8
:1013780005460893303A00F1010313D0059900EBB4
:10138800050E19442B4605910A21734512D12B18D5
:101398000135082B05441CDC07990A2303FB0123AC
:1013A80007930023179A1846511C17915278CAE7D9
:1013B8003846D3E7082B04DC079E4E4307960133D3
:1013C800E3E703F1010CBCF1100FD8BF01FB09F9E9
:1013D800F5E7102DDCBF0A2303FB0929E1E7002309
:1013E800059301237CE74FF0000C08F102021792E5
:1013F80098F8022085E74FF0010CF6E724AB0700C8
:101408009CAA07000000F07F179A511C1791527888
:10141800302AF9D0A2F1310108293FF679AFA2F1BB
:10142800300E179A0692179A511C17915278A2F10A
:101438003006092E37D9069E891B44F61F660829EF
:1014480002DC7645A8BF7646BCF1000F00D0764294
:10145800002D4DD1049901437FF4C6AE002B7FF4D3
:10146800E1AE692A27D024DC492A24D04E2A7FF409
:10147800D9AE9F4917A868F00BFE00283FF4D2AEFA
:10148800179B1B78282B2DD11AAA9A4917A868F000
:1014980013FE052826D11B9BDDF868A043F0FF4BFF
:1014A8004BF4E00BA0E60A2101FB0E2EAEF1300E44
:1014B800B9E76E2ADBE7904917A868F0E9FD00282C
:1014C8003FF4B0AE179B17A88C49013B179368F0FF
:1014D800DFFD10B9179B01331793DFF830B24FF0D7
:1014E800000A81E6864801F02BFA5BEC10AB7BE63C
:1014F800059B002F08BF2F46102D0798A6EB030366
:10150800A846A8BF4FF010080693FEF763FF092D01
:1015180082468B4613DD7B4B03EBC80353E912234A
:10152800FEF7D2FF82468B464846FEF753FF024637
:101538000B4650465946FEF711FE82468B460F2D44
:1015480038DC069B002B3FF44FAE24DD162B0BDC5A
:101558006C49524601EBC3015B46D1E90001FEF735
:10156800B3FF82468B463FE6C5F12503069A9342B0
:1015780020DBC5F10F05634C52465B4604EBC50101
:10158800D1E90001FEF7A0FF069B5D1B04EBC50433
:10159800D4E90023E3E7069B16330BDB059B504693
:1015A80059469E1B574B03EBC606D6E90023FFF7A7
:1015B800B5F8D6E7A5EB0808069B9844B8F1000FE4
:1015C80074DD18F00F030AD04E49524601EBC301EF
:1015D8005B46D1E90001FEF777FF82468B4638F07B
:1015E8000F084FD0B8F59A7F22DD00252E460795C3
:1015F80005952223DFF814B14FF0000A2360079BFA
:10160800002B3FF4F1AD189920465BF0FDFD0599DC
:1016180020465BF0F9FD314620465BF0F5FD079961
:1016280020465BF0F1FD294620465BF0EDFDDBE549
:10163800354B4FEA281850465946049300239946DB
:10164800B8F1010F21DC0BB182468B462E4BABF172
:10165800547B524603EBC9095B46D9E90001FEF702
:1016680033FF2A4B0A4682460B4029498B42BCD895
:10167800A1F580118B4286BFDFF898B04FF0FF3A92
:1016880002F1547B0023049383E018F0010F05D086
:10169800049BD3E90023FEF717FF0123049A09F1FD
:1016A80001094FEA680808320492C9E7EAD0C8F18C
:1016B800000818F00F020AD0124B5046594603EBA7
:1016C800C203D3E90023FFF729F882468B465FEA75
:1016D8002818D7D0B8F11F0F1EDD00252E46079514
:1016E800059522234FF0000A4FF0000B236086E790
:1016F800B9F30700B0AA0700B1F30700E3F3070046
:1017080099F20700C8B00600A0B006000000F07FFC
:101718000000A07CFFFFEF7F18F0100350465946E9
:10172800DFF8A89318BF6A230493002318F0010F69
:1017380004D0D9E90023FEF7C7FE01235FEA680851
:1017480009F10809F2D10BB182468B46049BC3B15B
:10175800CBF30A525946C2F16B03002B11DD1F2B44
:1017680040F32181342B4FF0000ADBBFC2F14B025A
:101778004FF0FF334FF05C7B03FA02F2D8BF02EA66
:10178800010B0022002350465946FFF7ADF9002807
:10179800A3D1079B3A460899204600932B465BF055
:1017A8009DFD079000283FF420AF059B00259E1B58
:1017B800069B002BB4BF334600232E460C93069B92
:1017C80023EAE3731293079B204659685BF0DCFC1D
:1017D800059000283FF40DAF079B0C301A6903F100
:1017E8000C010232920068F0D6F81AAA19A920460C
:1017F8004BEC10AB5CF04EF818904BEC18AB002893
:101808003FF4F7AE012120465BF0B2FD0646002802
:101818003FF4EFAE199B0499002BA3EB0108A9BF75
:101828000C9A129A03EB0209129FB8BFD71A1A9A98
:10183800A14B9044B8BFDDF83090C2F1360208F1F0
:10184800FF38984580F2C380A3EB080301211F2BC2
:10185800A2EB030200F3AE8001FA03F30D93002319
:10186800089309EB0208049B1744C1451F444B46E3
:10187800A8BF4346BB42A8BF3B46002BC2BFA8EB4C
:101888000308FF1AA9EB03090C9B002B17DD31464F
:101898001A4620465BF02AFE064600283FF4A9AE09
:1018A8000146189A20465BF079FD0B9000283FF41A
:1018B800A0AE189920465BF0A7FC0B9B1893B8F1D3
:1018C800000F00F38980069B002B08DD129A204642
:1018D80005995BF00BFE059000283FF48AAE002FB7
:1018E80008DD3A46059920465BF05AFE0590002827
:1018F8003FF47FAEB9F1000F08DD31464A46204675
:101908005BF04EFE064600283FF473AE059A20466B
:1019180018995BF0B5FE054600283FF46AAEC36827
:1019280031460B930023C36068F0F6FC00285DDAAB
:101938000B9B53EA0A037FD1CBF31303002B7BD114
:101948002BF000431B0D1B05B3F1D66F74D96B69DF
:1019580013B92B69012B6FDD2946012220465BF064
:101968001FFE3146054668F0D7FC002864DD04995F
:101978005B46524A00297FD002EA0B01B1F1D66FCB
:101988007ADCB1F15C7F7FF7ACAE4D4B50465946DF
:101998000022FEF799FD0B4682468B46034304BF9F
:1019A800222323602FE64FF0FF3202FA03F303EA03
:1019B8000A0AE6E6C8F17F480D9108F57F0808F5A0
:1019C8007B4808F1E20801FA08F3089349E7002385
:1019D800089301230D9344E74246189920465BF08B
:1019E800DFFD189000287FF46EAF02E65F466FD1E6
:1019F8000B9ACBF3130342B3324A934228D1049B88
:101A08005146EBB12D4B4FF0FF323B40B3F1D46F51
:101A180019D81B0DC3F16B0302FA03F3994217D1CE
:101A2800294B9F4202D101313FF4E3AD234B4FF0E4
:101A3800000A3B4003F5801B049B002BA5D1E2E57F
:101A48004FF0FF33EAE71346E8E753EA0A038ED07C
:101A5800089BDBB13B42EFD00B9B5046049A59469A
:101A6800C3B168F08BF902460B4651EC180BFEF730
:101A780075FB82468B46DFE713404FF0FF3AA3F52C
:101A880080136FEA135B6FEA0B5BD5E70D9B13EAD4
:101A98000A0FE0E768F072F902460B4651EC180BA2
:101AA800FEF75AFB0022002382468B46FFF71CF8FC
:101AB8000028C1D015E600BF02FCFFFF0000F07F40
:101AC80000005039FFFF0F00FFFFEF7F78B00600DE
:101AD8003146284668F03CFC00224FF0804310EE67
:101AE800100A59EC108B4946FFF712F800287AD0F3
:101AF8000B9B002B4AD00022934B4FF00008DFF8D5
:101B08004892CDE90823914B3B400D930D9A904B99
:101B18009A4240F0B080A7F1547BDDE908014BEC14
:101B280010ABCDE908015BF03BFEDDE9080153ECA1
:101B3800102BFEF7C9FC52465B46FEF70FFB0B461F
:101B480082498246834A1940914260D918EE903AF8
:101B580002F15472934204D118EE103A01333FF463
:101B680048ADDFF8FCB14FF0FF3A189920465BF01A
:101B78004BFB059920465BF047FB314620465BF05E
:101B880043FB294620465BF03FFB1CE6BAF1000FF9
:101B98001BD1CBF31303F3B900226B4B40464946E4
:101BA800FEF7ACFFD0B94046494600226A4BFEF723
:101BB8008BFC8046894609F10043CDF85080159387
:101BC800DDE91423CDE908239DE7BAF1010F02D11D
:101BD800002F3FF486AD0022604B8EE74FF00008DF
:101BE800DFF87491E7E75C4B404649460022FEF770
:101BF8006BFC0B9B8046894633B901F100430E907C
:101C08000F93DDE90E23DDE7CDE90E89F9E703F14E
:101C1800547B049B002BA8D12BF000430D9A1B0D7D
:101C28001B059A42A1D140464946FEF7CDFFFEF773
:101C38001DFC02460B4640464946FEF78DFACBF39B
:101C480013030B9A804643EA0A038946134355D087
:101C580035A3D3E90023FEF751FF00287FF4D3AC66
:101C68004046494632A3D3E90023FEF765FF002822
:101C78003FF47BAFC7E4049B33B30D9BB3F1D46F40
:101C880022D8404649462CA3D3E90023FEF740FF5B
:101C9800A0B149464046FEF729FE012838BF012079
:101CA800FEF798FB0B9B8046894623BB01F1004356
:101CB80010901193DDE91023CDE90823099B0D9AB3
:101CC80003F1D6639B1A0993B0EE480AF0EE680A4E
:101CD800DDE90801CDE908015BF062FDDDE90801F5
:101CE80053EC102BFEF7F0FB53EC182BFEF736FAEB
:101CF80082468B468DE7CDE91089DBE710A3D3E94F
:101D08000023FEF7FBFEB2E700230A93179B139A02
:101D18001360FFF76DBA652A3FF461AB452A3FF4BB
:101D28005EAB0123FFF796BB9535A094FFFFDF3F1D
:101D380035E5AF350000E03F0000C0FFFFFFDF41A1
:101D48009535A094FFFFCF3F0000F03F0000F07FE3
:101D58000000E07FFFFF9F7C0000E03F0000F0BF35
:101D6800FFFFEF7F000000002DE9F04F456A0446B1
:101D780010EE10AA2DED048B93B057EC106BDDF824
:101D88008080BB46069109920C9375B9102059F0D2
:101D980041FE0246606220B9A74BEA21A74859F0E4
:101DA80009FEC0E901550560C560636A196851B14B
:101DB8005A680123204693404A608B605BF024FAFE
:101DC800636A00221A603B1EADBF0023012223F084
:101DD800004BC8F800309A4BB8BFC8F8002033EA67
:101DE8000B031BD142F20F730C9A1360CBF313034E
:101DF800334300F08F85219B63B9924B22E0924BCD
:101E080001930833219A1360019813B0BDEC048B39
:101E1800BDE8F08F8B4B01930333F3E700220023D7
:101E280050465946FEF760FE80464BEC19AB58B158
:101E380001230C9A1360219B002B00F068858348CE
:101E48001860431E0193DFE7CBF30A5510AA11A9C6
:101E580020464BEC10AB5BF01DFD08EE100A002D80
:101E680000F0828019EE903A5646A5F2FF35CDF87B
:101E78003880C3F3130343F07F5747F44017002219
:101E8800734B30463946FEF767F965A3D3E900235B
:101E9800FEF71AFB64A3D3E90023FEF75FF90646B1
:101EA8000F462846FEF7A6FA61A3D3E90023FEF7FA
:101EB8000BFB02460B4630463946FEF74FF90646FD
:101EC8000F46FEF759FE002200900023304639469F
:101ED800FEF714FE50B10098FEF78CFA32463B46E6
:101EE800FEF702FE10B9009B013B0093009B162BE6
:101EF80059D8009A574B03EBC20351EC190BD3E99D
:101F08000023FEF7FBFD00284FD0009B013B009308
:101F180000230B93109B5D1B6B1E059349BFC5F1F6
:101F2800010300230493002354BF04930593009BEB
:101F3800002B3CDB059B009A13440A92059300236F
:101F48000793069B092B00F28980052BC5BF043B2C
:101F5800002501250693069B023B032B00F289808E
:101F6800DFE803F02E3B395ADDE910531D4405F232
:101F78003243202BC6BFC3F1400305F21240C3F120
:101F8800200305F1FF35C5BF0BFA03F326FA00F06D
:101F980006FA03F01843FEF71DFA01230646A1F1DD
:101FA800F8770E936BE70123B3E70B90B2E7049B36
:101FB800009A9B1A04935342079300230A93C0E79D
:101FC80000230893099B002B56DC01231A46CDE910
:101FD800023309920CE00123F3E70023099A0893DE
:101FE800009B134402930133012B0393B8BF0123D1
:101FF8000022606A4260042202F1140641689E428F
:102008003ED920465BF0C0F8019000283CD1124B25
:1020180002464FF4D571C1E60123DFE7AFF3008034
:1020280061436F63A787D23FB3C8608B288AC63FD6
:10203800FB799F501344D33FEDF3070004F40700E6
:102048000000F07FE9F30700E0F30700BDF30700A5
:102058000000F83FC8B0060078F407000125002307
:10206800089506934FF0FF330022CDE9023312237F
:10207800AFE701230893F5E7099BCDE90233B7E7FA
:10208800013152004160B7E7636A019A1A60039B05
:102098000E2B00F29D80002D00F09A80009B002BF3
:1020A80032DD03F00F03B64A02EBC303D3E900891C
:1020B800009BD8054FEA231716D5B24B07F00F0738
:1020C8000325D3E9082351EC190BFEF727FB8246B9
:1020D8008B46AC4E57B942464B4650465946FEF7DA
:1020E8001DFB82468B4628E00225F2E7F90708D552
:1020F800404649460135D6E90023FEF7E5F9804612
:1021080089467F100836E5E700F09B80009B022592
:102118009C4F5E429A4B06F00F02361103EBC20346
:1021280051EC190BD3E90023FEF7CEF900238246C0
:102138008B46002E7AD1002BD3D10B9B002B00F0BD
:1021480082800022904B50465946FEF7D7FC002863
:1021580079D0039B002B76D0029B002B36DD009BA9
:102168005046594600225F1E884BFEF7ADF90135EF
:1021780082468B46029E2846D046FEF73BF95246D9
:102188005B46D946FEF7A0F90022814BFDF7E6FF32
:102198008246A1F1507B002E58D100227D4B40464B
:1021A8004946FDF7D9FF52465B4680468946FEF709
:1021B800C3FC002840F0938252460BF1004340468E
:1021C8004946FEF79BFC002840F087825BEC19AB80
:1021D800119B002BC0F24881009A0E2A00F344811B
:1021E800674B03EBC203D3E90089099B002B80F2FC
:1021F800D580039B002B00F3D18040F06D82002234
:10220800644B40464946FEF75FF952465B46FEF787
:1022180089FC039E3746002840F043823123019D04
:1022280005F8013B009B013300933EE2F20705D518
:102238000135D7E90023FEF747F90123761008375F
:1022480077E7022579E7009F039E94E701994C4BB5
:10225800314403EBC6030D91089953E90223002981
:1022680043D000204C49FEF759FA52465B46FDF729
:1022780073FF019D82468B4649464046FEF77CFC2B
:102288000646FEF7B7F8024630360B464046494642
:10229800FDF762FF52465B4605F8016B80468946AA
:1022A800FEF72CFC002863D142464B4600203649F5
:1022B800FDF752FF52465B46FEF720FC002840F02F
:1022C800B5800D9B9D4281D00022304B5046594627
:1022D800FEF7FAF8002282468B46404649462B4BC9
:1022E800FEF7F2F880468946C6E750465946FEF79B
:1022F800EBF80D9B82468B46019D0F93494640465D
:10230800FEF73AFC0646FEF775F802460B464046CD
:1023180049463036FDF720FF0D9B05F8016B8046D6
:102328009D4289464FF0000224D11B4B5046594626
:10233800FDF714FF02460B4640464946FEF7FCFBF4
:10234800002873D152465B4600201349FDF704FF6D
:1023580002460B4640464946FEF7D0FB00283FF4AC
:1023680035AF0F9D6B1E0F9315F8013C302BF8D03D
:10237800009749E0054BFEF7A7F880468946BDE778
:10238800C8B00600A0B006000000F03F00002440DE
:1023980000001C40000014400000E03F56465F4625
:1023A800019D42464B4630463946FEF7B7F9FEF7DF
:1023B800E3FB8246FEF71EF842464B46FEF784F8DA
:1023C800024630460AF130060B463946FDF7C4FE90
:1023D80005F8016B019E0246039F0B46AE1BB742F0
:1023E80035D1FDF7BBFE42464B4606460F46FEF783
:1023F800A3FBD0B942464B4630463946FEF774FB3C
:1024080010B11AF0010F10D1204618EE101A5AF028
:10241800FBFE002300982B7001300C9B1860219B59
:10242800002B3FF4F1AC1D60EEE4009F2B461D46E7
:1024380013F8012D392A06D1019A9A42F7D1302290
:10244800019901370A701A7801321A7090E7002250
:10245800A44BFEF739F80022002306460F46FEF784
:1024680043FB00289DD0CFE7089A002A00F0D580CA
:10247800069A012A00F3B9800E9A002A00F0B1806A
:1024880003F23343079E049D049A012120461A440F
:102498000492059A1A4405925AF06AFF0746002DDD
:1024A8000CDD059B002B09DDAB42049AA8BF2B4627
:1024B800D21AED1A0492059AD31A0593079B1BB3F7
:1024C800089B002B00F0AD80002E13DD3946324604
:1024D80020465BF00BF818EE102A01460746204606
:1024E8005AF05CFF804618EE101A204608EE108A53
:1024F8005AF08AFE079B9A1B06D018EE101A20463F
:102508005AF0F4FF08EE100A012120465AF030FF75
:102518000A9B0646002B40F386801A460146204651
:102528005AF0E4FF069B0646012B7FDD4FF00008BA
:10253800336906EB8303186967F09FFEC0F120003A
:10254800059B184410F01F0000F09180C0F1200393
:10255800042B40F38980C0F11C00049B054403440C
:102568000493059B03440593049B002B07DD18EE99
:10257800101A1A4620465BF013F808EE100A059B5D
:10258800002B05DD31461A4620465BF009F8064661
:102598000B9B002B6DD0314618EE100A67F0BCFE7D
:1025A800002866DA009B18EE101A0A222046013B22
:1025B800009300235AF04AFE089B08EE100A002BED
:1025C80000F0AF81002339460A2220465AF03EFE29
:1025D800029B0746002B00F38D80069B022B50DCE4
:1025E80088E0109BC3F136034CE7039B5E1E079BF4
:1025F800B342B7BF079B9E1B0796F21ABFBF0A9B41
:1026080000269B180A93039B002BB7BFDDE9032321
:10261800DDE903359D1A002336E7079E049D089FD0
:102628003DE7079A69E7069B012B18DCBAF1000F12
:1026380015D1CBF3130393B92BF000431B0D1B05E6
:1026480083B1049B4FF0010801330493059B0133C8
:1026580005930A9B002B7FF46BAF012070E74FF0C6
:102668000008F6E79846F4E73FF47EAF18461C30BA
:1026780073E7039B002B37DC069B022B34DD039B9F
:102688000293029B6BB93146052220465AF0DEFDC3
:102698000146064618EE100A67F03EFE00283FF78E
:1026A800BDAD099B019DDB4300934FF00008314607
:1026B80020465AF0A9FD002F3FF4A6AEB8F1000F4E
:1026C80005D0B84503D0414620465AF09DFD39460D
:1026D80020465AF099FD97E600263746E1E700972D
:1026E80037469BE500002440089B002B00F0CA8079
:1026F800039B0293002D05DD39462A4620465AF0F1
:102708004FFF0746B8F1000F5BD0796820465AF0B2
:102718003BFD054628B9874B024640F2EA21FFF700
:102728003DBB3A6907F10C010C300232920067F0A8
:1027380032F90122294620465AF032FF019BB84659
:10274800074603F10109DDE90123134405930AF063
:1027580001030493314618EE100A67F05DFB414609
:10276800029000F1300A18EE100A09F1FF3B67F0F9
:10277800D3FD3A460390314620465AF081FFC2689D
:10278800054602BB014618EE100A67F0C5FD024671
:102798002946204607925AF037FD4D46DDE90632B4
:1027A80043EA0201049B0B430FD1BAF1390F2AD037
:1027B800039B002B02DD029B03F1310A8BF800A07A
:1027C80075E73846BAE70122E2E7039B002B04DBF2
:1027D80006990B4304990B4322D1002AEEDD18EE2B
:1027E800101A012220465AF0DBFE314608EE100A84
:1027F80067F092FD002803DCE0D11AF0010FDDD06C
:10280800BAF1390FD7D139238BF800302B461D4642
:10281800013B15F8012C392A70D001321A7046E7AD
:10282800002A07DDBAF1390FEDD00AF101038BF860
:1028380000303CE7059B09F801AC994546D018EEF5
:10284800101A00230A2220465AF000FDB84508EE67
:10285800100A4FF000034FF00A024146204606D105
:102868005AF0F4FC8046074609F1010972E75AF06C
:10287800EDFC3946804600230A2220465AF0E6FC41
:102888000746F1E7039B0293019D314618EE100AB3
:1028980067F0C2FA019B00F1300A05F801ABEA1AA9
:1028A800029B934209DD18EE101A00230A222046E3
:1028B8005AF0CCFC08EE100AE7E7029B4FF000083C
:1028C800002BCCBF1D460125019B1D4418EE101A94
:1028D800012220465AF064FE314608EE100A67F0DD
:1028E8001BFD002892DC02D11AF0010F8ED12B4675
:1028F8001D4613F8012D302AFAD0D8E6019A9A42DB
:1029080085D1009B0133009331231370CFE60A4B26
:10291800FFF798BA219B002B7FF471AA074BFFF7AA
:1029280091BA029B002BAFDC069B022B3FF7A9AEA6
:10293800AAE700BF78F40700BCF30700E0F307003C
:102948009FED010B704700BF000000000000F87FFA
:10295800044B0122D3E8EF1FC3E8E02F0028F9D188
:10296800704700BFA8310020B0B500AF5BF008FB8E
:1029780000284BD00146A94B1B6813F0070F3FD026
:102988006C4688B06B4613F1100200F0D08310201B
:102998001AB1042801DDA24D5D6112B1082800DDDD
:1029A80099611AB10C2801DD9121D9610F2840F3F2
:1029B800C18310205AB100214FF0040C6CF30701B9
:1029C8006FF30F216FF317416FF31F611961002136
:1029D8006FF300016FF341016FF382016FF3C501DB
:1029E800012363F3881100F47D7363F352216FF3BD
:1029F800DE416FF3DF710023884815F07BFDA546A3
:102A0800404080F311884FF0030002DF0FF03AFFD7
:102A1800014600284AD0814B1B6813F0070F3FD0AE
:102A28006C4688B06B4613F1100200F086831020C4
:102A38001AB1042801DD7A4D5D6112B1082800DD64
:102A480099611AB10C2801DD9421D9610F2840F34E
:102A5800778310205AB100214FF0040C6CF3070162
:102A68006FF30F216FF317416FF31F611961002195
:102A78006FF300016FF341016FF382016FF3C5013A
:102A8800012363F3881100F47D7363F352216FF31C
:102A9800DE416FF3DF710023604815F02BFDA5467A
:102AA800404080F311884FF0030002DF0EF0FCFC79
:102AB800014600284AD0594B1B6813F0070F3FD036
:102AC8006C4688B06B4613F1100200F03C8310206E
:102AD8001AB1042801DD524D5D6112B1082800DDEC
:102AE80099611AB10C2801DD9721D9610F2840F3AB
:102AF8002D8310205AB100214FF0040C6CF307010C
:102B08006FF30F216FF317416FF31F6119610021F4
:102B18006FF300016FF341016FF382016FF3C50199
:102B2800012363F3881100F47D7363F352216FF37B
:102B3800DE416FF3DF710023384815F0DBFCA54652
:102B4800404080F311884FF0030002DF5BF0F8F992
:102B5800014600284AD0314B1B6813F0070F3FD0BD
:102B68006C4688B06B4613F1100200F0F282102018
:102B78001AB1042801DD2A4D5D6112B1082800DD73
:102B880099611AB10C2801DD9A21D9610F2840F307
:102B9800E38210205AB100214FF0040C6CF30701B6
:102BA8006FF30F216FF317416FF31F611961002154
:102BB8006FF300016FF341016FF382016FF3C501F9
:102BC800012363F3881100F47D7363F352216FF3DB
:102BD800DE416FF3DF710023104815F08BFCA5462A
:102BE800404080F311884FF0030002DF00F012FD2F
:102BF800014600284FD0094B1B6813F0070F44D03B
:102C08006C4688B06B4613F1100200F0A8821020C1
:102C180042B1042806DD024D5D6103E0940E0020F8
:102C280090B1060012B1082800DD99611AB10C288C
:102C380001DD9D21D9610F2840F3948210205AB1FB
:102C480000214FF0040C6CF307016FF30F216FF3B1
:102C580017416FF31F61196100216FF300016FF3D2
:102C680041016FF382016FF3C501012363F38811FA
:102C780000F47D7363F352216FF3DE416FF3DF716C
:102C88000023AC4815F036FCA546404080F3118877
:102C98004FF0030002DF11F055F8014600284AD032
:102CA800A44B1B6813F0070F3FD06C4688B06B46E7
:102CB80013F1100200F0598210201AB1042801DD26
:102CC8009D4D5D6112B1082800DD99611AB10C288B
:102CD80001DDA021D9610F2840F34A8210205AB1A2
:102CE80000214FF0040C6CF307016FF30F216FF311
:102CF80017416FF31F61196100216FF300016FF332
:102D080041016FF382016FF3C501012363F3881159
:102D180000F47D7363F352216FF3DE416FF3DF71CB
:102D28000023844815F0E6FBA546404080F311884F
:102D38004FF0030002DF814810F0ECFF0146002845
:102D48004AD07C4B1B6813F0070F3FD06C4688B005
:102D58006B4613F1100200F00E8210201AB10428FD
:102D680001DD754D5D6112B1082800DD99611AB168
:102D78000C2801DDA321D9610F2840F3FF81102021
:102D88005AB100214FF0040C6CF307016FF30F21C7
:102D98006FF317416FF31F61196100216FF3000191
:102DA8006FF341016FF382016FF3C501012363F3F0
:102DB800881100F47D7363F352216FF3DE416FF3E2
:102DC800DF7100235B4815F095FBA546404080F372
:102DD80011884FF0030002DF584BDB6813F00E0F29
:102DE80040F0D681554BDB6813F47D7F40F07B8241
:102DF80010F064FB014600284AD04E4B1B6813F0C4
:102E0800070F3FD06C4688B06B4613F1100200F0F4
:102E1800C38210201AB1042801DD474D5D6112B14B
:102E2800082800DD99611AB10C2801DDB521D961A6
:102E38000F2840F3B48210205AB100214FF0040C3F
:102E48006CF307016FF30F216FF317416FF31F61E5
:102E5800196100216FF300016FF341016FF38201E3
:102E68006FF3C501012363F3881100F47D7363F3E5
:102E780052216FF3DE416FF3DF7100232D4815F007
:102E880039FBA546404080F311884FF0030002DF6C
:102E980003F092FC0146002852D0264B1B6813F021
:102EA800070F3FD06C4688B06B4613F1100200F054
:102EB800798210201AB1042801DD1F4D5D6112B11D
:102EC800082800DD99611AB10C2801DDB821D96103
:102ED8000F2840F36A8210205AB100214FF0040CE9
:102EE8006CF307016FF30F216FF317416FF31F6145
:102EF800196100216FF300016FF341016FF3820143
:102F08006FF3C501012363F3881100F47D7363F344
:102F180052216FF3DE416FF3DF710023054815F08E
:102F2800E9FAA546404080F311884FF0030002DF1C
:102F380006E000BF940E002090B10600AC310020DE
:102F480003F00EFC014600284AD08E4B1B6813F094
:102F5800070F3FD06C4688B06B4613F1100200F0A3
:102F6800278210201AB1042801DD874D5D6112B156
:102F7800082800DD99611AB10C2801DDBF21D9614B
:102F88000F2840F3188210205AB100214FF0040C8A
:102F98006CF307016FF30F216FF317416FF31F6194
:102FA800196100216FF300016FF341016FF3820192
:102FB8006FF3C501012363F3881100F47D7363F394
:102FC80052216FF3DE416FF3DF7100236D4815F076
:102FD80091FAA546404080F311884FF0030002DFC4
:102FE8000DF0A6FD0EF06CFD014600284AD0654B99
:102FF8001B6813F0070F3FD06C4688B06B4613F17F
:10300800100200F0DB8110201AB1042801DD5E4DAA
:103018005D6112B1082800DD99611AB10C2801DD43
:10302800C221D9610F2840F3CC8110205AB1002168
:103038004FF0040C6CF307016FF30F216FF3174186
:103048006FF31F61196100216FF300016FF34101F4
:103058006FF382016FF3C501012363F3881100F454
:103068007D7363F352216FF3DE416FF3DF71002349
:10307800444815F03FFAA546404080F311884FF0C8
:10308800030002DF03F092FB404808F045F80146D0
:10309800002800F0A8813B4B1B6813F0070F3FD0B6
:1030A8006C4688B06B4613F1100200F08D81102039
:1030B8001AB1042801DD344D5D6112B1082800DD24
:1030C80099611AB10C2801DDC821D9610F2840F394
:1030D8007E8110205AB100214FF0040C6CF30701D7
:1030E8006FF30F216FF317416FF31F61196100210F
:1030F8006FF300016FF341016FF382016FF3C501B4
:10310800012363F3881100F47D7363F352216FF395
:10311800DE416FF3DF7100231A4815F0EBF9A5467D
:10312800404080F311884FF0030002DF5BE16FF04D
:1031380000402DE46FF01B003CE46FF0004077E4A2
:103148006FF01B0086E46FF00040C1E46FF01B00D5
:10315800D0E46FF000400BE56FF01B001AE56FF04C
:10316800004055E56FF01B0069E56FF00040A4E5ED
:103178006FF01B00B3E56FF00040EFE56FF01B0048
:10318800FEE500BF940E002090B10600592900000A
:103198000FF09CFB0546002849D08E4B1B6813F0A6
:1031A800070F3ED06C4688B06B4613F1100200F052
:1031B8008E8010211AB1042901DD8748586112B1A7
:1031C800082900DD9D611AB10C2901DDA720D8610D
:1031D8000F297FDD10205AB100214FF0040C6CF349
:1031E80007016FF30F216FF317416FF31F61196127
:1031F80000216FF300016FF341016FF382016FF358
:10320800C501012363F3881100F47D7060F3522136
:103218006FF3DE416FF3DF7100236E4815F06AF932
:10322800A546404080F311884FF0030002DF5AF0B2
:10323800F8FF054600283FF4D5AD664B1B6813F030
:10324800070F3DD06C4688B06B4613F1100244D08E
:1032580010211AB1042901DD5F48586112B108290B
:1032680000DD9D611AB10C2901DDAA20D8610F2962
:1032780036DD10205AB100214FF0040C6CF3070121
:103288006FF30F216FF317416FF31F61196100216D
:103298006FF300016FF341016FF382016FF3C50112
:1032A800012363F3881100F47D7060F352216FF3FA
:1032B800DE416FF3DF710023464815F01BF9A54680
:1032C800404080F311884FF0030002DF8AE56FF079
:1032D80000416FE76FF01B007DE76FF00041B8E732
:1032E8006FF01B00C6E710F0EBF910F1130F3FF475
:1032F8007FAD00283FF47CAD364B1B6813F0070FF9
:103308003DD06C4688B06B4613F110023ED01021B8
:103318001AB1042901DD304D5D6112B1082900DDC3
:1033280098611AB10C2901DDB020D8610F2930DD70
:1033380010205AB100214FF0040C6CF307016FF311
:103348000F216FF317416FF31F61196100216FF3AC
:1033580000016FF341016FF382016FF3C50101238F
:1033680063F3881100F47D7060F352216FF3DE413E
:103378006FF3DF710023174815F0BCF8A5464040ED
:1033880080F311884FF0030002DF31E56FF0004150
:10339800BEE76FF01B00CCE76FF000403AE56FF036
:1033A8001B0049E56FF0004084E56FF01B0093E5D2
:1033B8006FF00040D6E56FF01B00E5E56FF00040C8
:1033C80022E66FF01B0031E66FF0004070E66FF008
:1033D8001B007FE6940E002090B1060040F6CD4019
:1033E800002140F059F9874BD3E8AF3F002BF5D0C7
:1033F8005AF0A8FD014600284AD0834B1B6813F0F9
:10340800070F3FD06C4688B06B4613F1100200F0EE
:10341800E68010201AB1042801DD7C4D5D6112B1EF
:10342800082800DD99611AB10C2801DDD021D96185
:103438000F2840F3D78010205AB100214FF0040C18
:103448006CF307016FF30F216FF317416FF31F61DF
:10345800196100216FF300016FF341016FF38201DD
:103468006FF3C501012363F3881100F47D7363F3DF
:1034780052216FF3DE416FF3DF710023624815F0CC
:1034880039F8A546404080F311884FF0030002DF69
:1034980005F0A6FB014600284AD05B4B1B6813F0D9
:1034A800070F3FD06C4688B06B4613F1100200F04E
:1034B8009C8010201AB1042801DD544D5D6112B1C1
:1034C800082800DD99611AB10C2801DDD321D961E2
:1034D8000F2840F38D8010205AB100214FF0040CC2
:1034E8006CF307016FF30F216FF317416FF31F613F
:1034F800196100216FF300016FF341016FF382013D
:103508006FF3C501012363F3881100F47D7363F33E
:1035180052216FF3DE416FF3DF7100233A4814F054
:10352800E9FFA546404080F311884FF0030002DF11
:103538009FED370A4FF4FA714FF4DC7002F0E2FCA9
:103548000146002848D0304B1B6813F0070F3DD0C8
:103558006C4688B06B4613F110024CD010201AB19B
:10356800042801DD294D5D6112B1082800DD99614B
:103578001AB10C2801DDD621D9610F283EDD1020B3
:103588005AB100214FF0040C6CF307016FF30F21BF
:103598006FF317416FF31F61196100216FF3000189
:1035A8006FF341016FF382016FF3C501012363F3E8
:1035B800881100F47D7363F352216FF3DE416FF3DA
:1035C800DF710023104814F095FFA546404080F3B2
:1035D80011884FF0030002DF05F09CFAFCE76FF05A
:1035E800004017E76FF01B0026E76FF0004061E727
:1035F8006FF01B0070E76FF00040B0E76FF01B0042
:10360800BEE700BFA8310020940E002090B106004C
:10361800CDCC4C3E90B59FB004AF632302930523F5
:10362800019300210091AF4B0C22AF4866F02EFBAE
:10363800AE4B1B6803F00703022B68D902233B70CB
:1036480003237B700423BB706C468AB00DF1100E07
:103658006B4613F1200223D0172022B1042802DD83
:10366800A34BCEF8143002233B7022B1082802DDA8
:10367800A04BCEF8183003237B7022B10C2802DD52
:10368800994BCEF81C300423BB7022B1102802DD00
:10369800994BCEF8203082B10EF1240300210AE0C4
:1036A8006FF00040D9E707F1680C8C441CF868CC2F
:1036B80003F801CB01310229F5D916284BDD172073
:1036C80062B10023052161F307036FF30F236FF342
:1036D8001743032161F31F63CEF8103000216FF305
:1036E80000016FF341016FF382016FF3C5010323FA
:1036F80063F38811C0F3090363F352216FF3DE41CA
:103708006FF3DF710023794814F0F4FEA546774B78
:103718001B6803F00703022B20D8F81D5AF094FD0C
:10372800002842D1FB79002B74D0012B00F0A58032
:10373800724C49232246724972485BF05DFB72481D
:103748005BF05AFB4921204611F002F8002420467C
:103758006C37BD4690BD6FF01B00B1E76B4BFB614A
:103768000023022262F307036FF30F236FF317435B
:103778006FF31F63BB6100216FF300016FF3410119
:103788006FF382016FF3C501032363F388110823E4
:1037980063F352216FF3DE416FF3DF71002307F10A
:1037A8001802524814F0A6FEB7E70023FB715848E8
:1037B80014F052FA04460028C9D14C4B1B6803F098
:1037C8000703022BAED9534B7B630023022262F31B
:1037D80007036FF30F236FF317436FF31F633B6305
:1037E80000216FF300016FF341016FF382016FF362
:1037F800C501032363F38811082363F352216FF390
:10380800DE416FF3DF71002307F13002374814F00F
:1038180071FE87E7404814F01FFA0446002896D145
:10382800324B1B6803F00703022B90D93B4B7B6696
:103838000023022262F307036FF30F236FF317438A
:103848006FF31F633B6600216FF300016FF34101C3
:103858006FF382016FF3C501032363F38811082313
:1038680063F352216FF3DE416FF3DF71002307F139
:1038780060021E4814F03EFE69E7294814F0ECF98E
:10388800044600287FF463AF184B1B6803F0070356
:10389800022B7FF65CAF234BFB640023022262F30A
:1038A80007036FF30F236FF317436FF31F63BB64B3
:1038B80000216FF300016FF341016FF382016FF391
:1038C800C501032363F38811082363F352216FF3BF
:1038D800DE416FF3DF71002307F14802034814F05B
:1038E80009FE34E7BCB10600C0310020740E002088
:1038F800C8B1060028B306000CB30600C0B2060023
:10390800F8D00600D0B20600F0B2060010B20600E9
:1039180058B306002CB2060054B3060078B206006D
:1039280050B306009CB206002DE9F04FADF6B43D49
:1039380002AF0023C7F89C3BFB62A1E16FF0004196
:1039480056E06FF01B0366E06FF00041B3E00F290B
:1039580040F3C580102352B1042161F3070A6FF3C5
:103968000F2A6FF3174A6FF31F6AC0F810A06FF39E
:1039780000086FF341086FF382086FF3C50801214F
:1039880061F3881803F47D7363F352286FF3DE48FC
:103998006FF3DF7800234146524814F0ABFDAD4683
:1039A800404080F311884FF0030002DF0134092CF6
:1039B80000F3A08007F6743303EB84054FF0FF3261
:1039C8004FF0FF33CDE90023474A2946474810F016
:1039D8000BFD0346002849D0424A126812F0070F2F
:1039E8003ED0EB4688B002A86A461832A6D010210D
:1039F8002AB1042903DDDFF8F8C0C0F814C012B1F9
:103A0800082900DD83611AB10C2901DD4823C3614F
:103A18000F2996DD102352B1042161F307096FF3D2
:103A28000F296FF317496FF31F69C0F810906FF3F0
:103A380000066FF341066FF382066FF3C506012196
:103A480061F3881603F47D7363F352266FF3DE4641
:103A58006FF3DF7600233146224814F04BFDDD4634
:103A6800404080F311884FF0030002DF04EB44006C
:103A78001D4B1A6807F6A83303EB840353F8341C6C
:103A880007F57D7303EB801065F085FF294617481D
:103A980010F0E2FC0346002888D0124A126812F09F
:103AA800070F3FF47DAF6D4688B002A86A4618320A
:103AB8003FF44AAF10212AB1042903DDDFF830C0F2
:103AC800C0F814C012B1082900DD8361002A3FF450
:103AD8003EAF0C297FF73BAF4D23C36137E76FF04B
:103AE8001B0338E7F00D002014510020E0010020EE
:103AF80090B10600634B1B79002B00F0B480624B39
:103B08001B68002B40F0CC8007F69C335F4A4FF4CB
:103B1800F06107F57D7005F0FBF90546002800F017
:103B2800A2805B4B1B6813F0070F4CD0022387F869
:103B380034306C4688B002A86B4613F1180200F0C6
:103B480074810D231AB1042B01DD52494161022110
:103B580087F834101AB1082B01DD4F498161002A1A
:103B680040F066810C2B40F374814FF00D0C72B15C
:103B780003213B6A61F3070319466FF30F216FF3C3
:103B880017410B46012161F31F633B620361B96A68
:103B98006FF300016FF341016FF382016FF3C50109
:103BA8000846012161F38810CCF3090363F352201E
:103BB8006FF3DE406FF3DF700146B86200233448CC
:103BC80014F098FCA546324B1B6813F0070F44D03D
:103BD8006C4688B002A96B4613F1180200F03C81CC
:103BE80010231AB1042B01DD2C48486112B1082BAF
:103BF80000DD8D611AB10C2B01DD6320C8610F2B2C
:103C080040F32D81102362B10420FD6960F307059C
:103C180028466FF30F206FF317406FF31F60F861AA
:103C28000861796A6FF300016FF341016FF3820154
:103C38006FF3C5010846012161F3881003F47D7311
:103C480063F352206FF3DE406FF3DF700146786252
:103C580000230F4814F04EFCA546404080F311881D
:103C68004FF0030002DFFB6AB3F57A7F00F0FA80B9
:103C7800FB6A0133FB62034B1B79002B40F0558133
:103C8800002494E618510020905100200C51002087
:103C9800F00D00205CB3060060B3060090B106008A
:103CA800A54A0092A54A4FF4707107F1340010F04C
:103CB80055F9034600284ED0A14A126812F0070FA2
:103CC80043D06C4688B002A86A46183200F0A1803A
:103CD80010211AB1042901DD9A4D456112B1082954
:103CE80000DD83611AB10C2901DD5823C3610F2956
:103CF80040F39280102362B10421BD6861F3070587
:103D080029466FF30F216FF317416FF31F61B960F5
:103D1800016179696FF300016FF341016FF382016B
:103D28006FF3C5010846012161F38810014603F4C9
:103D38007D7363F352216FF3DE416FF3DF717961B5
:103D480000237F4814F0D6FBA546404080F3118835
:103D58004FF0030002DF07F13003009307F57D738E
:103D680010224FF4707107F134005AF07AFA0346C2
:103D780000283FF4C9AE724A126812F0070F41D00A
:103D88006C4688B002A86A46183248D010211AB189
:103D9800042901DD6B4D456112B1082900DD8361FD
:103DA8001AB10C2901DD5D23C3610F293ADD102307
:103DB80062B104217D6861F3070529466FF30F217D
:103DC8006FF317416FF31F617960016139696FF310
:103DD80000016FF341016FF382016FF3C5010846DB
:103DE800012161F38810014603F47D7363F35221C6
:103DF8006FF3DE416FF3DF7139610023504814F02F
:103E080079FBA546404080F311884FF0030002DF9C
:103E18007AE66FF000415CE76FF01B036BE76FF029
:103E28000041B4E76FF01B03C2E76FF0004389E677
:103E380000F11C014FF0000CBCF1000F7FF492AEB2
:103E480007F1340E1EF80CE001F801EB0CF1010C3F
:103E5800F2E76FF01B0C8AE66FF00043C1E66FF0E3
:103E68001B03D0E607F53A6207F6A431364810F08E
:103E780021FBF86200283FF4FEAE314B1B6813F0BB
:103E8800070F43D06C4688B002A96B4613F118029D
:103E980045D010231AB1042B01DD2A4848611AB114
:103EA800082B01DDF86A88611AB10C2B01DD6A2044
:103EB800C8610F2B36DD102362B10420FD6860F362
:103EC800070528466FF30F206FF317406FF31F6045
:103ED800F8600861B9696FF300016FF341016FF38E
:103EE80082016FF3C5010846012161F3881001467C
:103EF80003F47D7363F352216FF3DE416FF3DF71D7
:103F0800B96100230E4814F0F5FAA546404080F345
:103F180011884FF0030002DF0023FB62ABE66FF06D
:103F28000043B7E76FF01B03C6E7D7F89C1B074BA6
:103F3800186804F08DFDA3E68C5100202C51002058
:103F4800F00D002090B10600E00100200C51002087
:103F5800B0B590B008AF774B1B78002B40F0BE800F
:103F6800754B93F86430002B00F0F680734B93F890
:103F78006430002B00F0A481714B1A6900920FCBBA
:103F880005F0E6FA0446002800F09B806D4B1B689C
:103F980013F0070F4AD002233B716D4688B0AC4638
:103FA8006B4613F1300200F04D820D2022B1042837
:103FB80002DD654BCCF8143002233B7122B108288E
:103FC80002DD624BCCF818302AB10CF11C03002139
:103FD800002900F03A820C2840F340820D2062B19B
:103FE8000023032161F307036FF30F236FF31743D4
:103FF800012161F31F63CCF8103000216FF3000139
:104008006FF341016FF382016FF3C501012363F37D
:104018008811C0F3090363F352216FF3DE416FF394
:10402800DF710023474814F065FAAD46454B1B681D
:1040380013F0070F3FD06D4688B029466B4613F141
:10404800300200F00E8210231AB1042B01DD404823
:10405800486112B1082B00DD8C611AB10C2B01DD0F
:104068009020C8610F2B40F3FF81102052B100232C
:10407800042464F307036FF30F236FF317436FF3FD
:104088001F630B6100216FF300016FF341016FF3B0
:1040980082016FF3C501012363F3881100F47D7376
:1040A80063F352216FF3DE416FF3DF71002325487C
:1040B80014F020FAAD46404080F311884FF0030019
:1040C80002DF1F4B01221A741B79002B40F0CF81AD
:1040D800184B01221A702037BD46B0BD194B1B681A
:1040E80013F0060FF7D01B4BFB610222002362F38B
:1040F80007036FF30F236FF317436FF31F63BB615E
:1041080000216FF300016FF341016FF382016FF338
:10411800C50162F38811082363F352216FF3DE416E
:104128006FF3DF71002307F11802064814F0E2F973
:10413800D1E700BF06A2002048020020E0010020CD
:1041480018510020F00D00205CB30600C4B306002F
:1041580090B1060070B30600B34810F0E5F90446C4
:1041680000283FF403AFB14B1B6813F0070F48D08A
:1041780002233B716D4688B0AC466B4613F13002A2
:1041880000F089800D2022B1042802DDA84BCCF86C
:10419800143002233B7122B1082802DDA54BCCF86C
:1041A800183022B10CF11C030021002976D00C280C
:1041B8007DDD0D2062B10023032161F307036FF356
:1041C8000F236FF31743012161F31F63CCF81030FD
:1041D80000216FF300016FF341016FF382016FF368
:1041E800C501012363F38811C0F3090363F3522166
:1041F8006FF3DE416FF3DF7100238C4814F07AF916
:10420800AD468A4B1B6813F0070F3DD06D4688B04A
:1042180029466B4613F130024CD010231AB1042BF7
:1042280001DD8548486112B1082B00DD8C611AB1A7
:104238000C2B01DD8720C8610F2B3EDD102052B109
:104248000023042464F307036FF30F236FF317436A
:104258006FF31F630B6100216FF300016FF34101DE
:104268006FF382016FF3C501012363F3881100F432
:104278007D7363F352216FF3DE416FF3DF71002327
:104288006A4814F037F9AD46404080F311884FF082
:10429800030002DF6AE66FF0004074E707F1200EC2
:1042A8008E441EF81CEC03F801EB01317DE76FF03A
:1042B8001B007FE76FF00043B0E76FF01B00BEE71D
:1042C8005E4810F031F9044600283FF455AE574BCC
:1042D8001B6813F0070F48D002233B716D4688B066
:1042E800AC466B4613F1300200F089800D2022B1F4
:1042F800042802DD4E4BCCF8143002233B7122B166
:10430800082802DD4E4BCCF8183022B10CF11C0302
:104318000021002976D00C287DDD0D2062B1002314
:10432800032161F307036FF30F236FF31743012191
:1043380061F31F63CCF8103000216FF300016FF3B5
:1043480041016FF382016FF3C501012363F3881103
:10435800C0F3090363F352216FF3DE416FF3DF719A
:104368000023324814F0C6F8AD46304B1B6813F0F2
:10437800070F3DD06D4688B029466B4613F13002D1
:104388004CD010231AB1042B01DD2B48486112B11F
:10439800082B00DD8C611AB10C2B01DD8C20C86163
:1043A8000F2B3EDD102052B10023042464F30703D1
:1043B8006FF30F236FF317436FF31F630B61002134
:1043C8006FF300016FF341016FF382016FF3C501D1
:1043D800012363F3881100F47D7363F352216FF3B3
:1043E800DE416FF3DF710023104814F083F8AD4607
:1043F800404080F311884FF0030002DFBCE56FF006
:10440800004074E707F1200E8E441EF81CEC03F8F8
:1044180001EB01317DE76FF01B007FE76FF0004390
:10442800B0E76FF01B00BEE748020020F00D002047
:104438005CB306008CB3060090B10600E0010020D2
:10444800A8B306006FF00040B0E507F1200E8E44D7
:104458001EF81CEC03F801EB0131B9E56FF01B0005
:10446800BDE56FF00043EFE56FF01B00FEE50022AD
:104478000023CDE906230023049303220392029329
:10448800019300932F4B41F65E222F492F483CF0B1
:1044980035F92F4B18602F493BF0F6FE03460028EC
:1044A8003FF416AE2C4A126812F0070F3CD06C4647
:1044B80088B025466A4630323DD010211AB1042909
:1044C80001DD2648686112B1082900DDAB611AB127
:1044D8000C2901DD9B23EB610F292FDD102052B140
:1044E8000023042161F307036FF30F236FF31743CE
:1044F8006FF31F632B6100216FF300016FF341011C
:104508006FF382016FF3C501012363F3881100F48F
:104518007D7363F352216FF3DE416FF3DF71002384
:104528000D4813F0E7FFA546404080F311884FF08F
:10453800030002DFCCE56FF00041BFE76FF01B001E
:10454800CDE700BF3139000030A2002080150020DF
:1045580010510020DCB30600F00D002090B10600D9
:1045680010B9354B18607047B0B500AFB7EE000A08
:104578004BF6803382B23049304810F08DFA01464C
:10458800002848D02E4B1B6813F0070F3DD06C460F
:1045980088B06B4613F1100244D010201AB10428D9
:1045A80001DD284D5D6112B1082800DD99611AB15D
:1045B8000C2801DDAB21D9610F2836DD10205AB156
:1045C80000214FF0040C6CF307016FF30F216FF318
:1045D80017416FF31F61196100216FF300016FF339
:1045E80041016FF382016FF3C501012363F3881161
:1045F80000F47D7363F352216FF3DE416FF3DF71D3
:1046080000230F4813F076FFA546404080F3118839
:104618004FF0030002DF084B1B68602B08D800200E
:10462800BD46B0BD6FF00040B8E76FF01B00C6E7AD
:104638006FF00B00F4E700BF905100202C510020D0
:10464800F00D002090B10600B0B500AF5A4B012222
:104658001A709A705A70FFF77BFC0DF003FA002865
:104668004CD00146554B1B6813F0070F40D06C46E1
:1046780088B06B4613F1100200F0928010201AB136
:10468800042801DD4E4D5D6112B1082800DD9961F5
:1046980022B10C2802DD40F24F11D9610F2840F3F6
:1046A800828010205AB100214FF0040C6CF30701EE
:1046B8006FF30F216FF317416FF31F611961002129
:1046C8006FF300016FF341016FF382016FF3C501CE
:1046D800012363F3881100F47D7363F352216FF3B0
:1046E800DE416FF3DF710023344813F003FFA54662
:1046F800404080F311884FF0030002DF314801F099
:10470800C9FF0146002849D02C4B1B6813F0070F3E
:104718003ED06C4688B06B4613F1100246D010208C
:104728001AB1042801DD264D5D6112B1082800DDAB
:10473800996122B10C2802DD4FF4A971D9610F28C3
:1047480037DD10205AB100214FF0040C6CF307013B
:104758006FF30F216FF317416FF31F611961002188
:104768006FF300016FF341016FF382016FF3C5012D
:10477800012363F3881100F47D7363F352216FF30F
:10478800DE416FF3DF7100230C4813F0B3FEA5463A
:10479800404080F311884FF0030002DFBD46B0BDF2
:1047A8006FF000406BE76FF01B007BE76FF0004095
:1047B800B6E76FF01B00C5E718510020F00D002088
:1047C80090B10600E00100204AF27A73984228BFAF
:1047D800184648F6E273984238BF1846044B93F8D7
:1047E800C83E1BB14FF05023C3F85C05704700BFAB
:1047F800186300200C4B93F8803133B90A4B01221F
:1048080083F88021036000207047074B93F88131BB
:104818003BB9054B012283F88121C0330360002096
:1048280070476FF00B00704794510020074B984277
:1048380003D0074B984204D07047002283F88021A8
:104848007047C03B002283F88121F5E7945100208E
:104858005452002008B50021034B19704FF47072B0
:10486800024865F0D2F808BD07A20020F4710020C4
:1048780008B502483DF072F908BD00BFB00200203B
:1048880090B589B000AF4D4B93F8BC3E83425AD0E7
:104898004A4B0022A3F8BE2E83F8BC0E484B1B6877
:1048A80003F00703022B4BD9464B53F82000022391
:1048B8003B716C4688B06B4613F110026ED04FF016
:1048C8000D0C22B1BCF1040F01DD3F4959610221F1
:1048D80039711AB1BCF1080F00DD986122B103F1FA
:1048E8001C01002000285CD0BCF10C0F62DD0D20FB
:1048F8006AB100214FF0030C6CF307016FF30F212D
:104908006FF317414FF0010C6CF31F61196100211F
:104918006FF300016FF341016FF382016FF3C5017B
:10492800032363F38811C0F3090363F352216FF380
:10493800DE416FF3DF710023214813F0DBFDA5464C
:104948002437BD4690BD1E4B1B6813F0060FF7D0E9
:104958001E4BFB610222002362F307036FF30F2350
:104968006FF317436FF31F63BB6100216FF30001FF
:104978006FF341016FF382016FF3C50162F3881190
:10498800082363F352216FF3DE416FF3DF710023D5
:1049980007F118020A4813F0ADFDD1E76FF0004C9B
:1049A8008FE707F1200E86441EF81CEC01F801EB96
:1049B800013097E76FF01B009AE700BF18630020EB
:1049C800F40D0020A4B9060028B40600F0B30600D0
:1049D80010B5514B93F8BC3E032B07D8DFE803F022
:1049E800020E34644C4BD3F8B43E03B910BD4A4AA6
:1049F800C2F8C03E0120FFF743FFF7E7464AB2F886
:104A0800BE3E01339BB2A2F8BE3E632BEED9D2F86C
:104A1800C03ED2F8B41E5B1A03F5C333A0333F4837
:104A280000FB03F33E4880FB0310DB17C3EBA01029
:104A380000F51B40AE30C2F8C40E80B2FFF7C4FECA
:104A48000220FFF71DFFD1E7334AB2F8BE3E01331B
:104A58009BB2A2F8BE3E632BC8D9D2F8B44E201A36
:104A6800304BA3FB00239B094FF47A7404FB130417
:104A7800B4F5FA7F01DDA4F57A74284B04FB03F33F
:104A8800274880FB0320DB17C3EBA013224AD2F888
:104A9800C40E184480B2FFF797FE0F341E2CA5D819
:104AA8000320FFF7EDFEA1E71B4AB2F8BE3E013333
:104AB8009BB2A2F8BE3E632B98D9D2F8B43E181A1E
:104AC800184BA3FB00239B094FF47A7202FB1300D7
:104AD800B0F5FA7F01DDA0F57A7000EBD0704410D4
:104AE8000E4B04FB03F30E4880FB0320DB17C3EBDC
:104AF800A013094AD2F8C40E184480B2FFF764FE26
:104B08002034402C04D8044B0022A3F8BE2E6DE7B5
:104B18000220FFF7B5FE69E71863002018FCFFFFC5
:104B2800019D7F31D34D6210684B93F8CC3E834290
:104B380000F0CB80B0B582B000AF0446634B0022D2
:104B4800A3F8CE2E83F8CC0E614B1B6803F0070345
:104B5800022B4ED95F4B53F8200002233B716D4660
:104B680088B06B4613F1100200F096804FF00D0CE0
:104B780022B1BCF1040F01DD574959610221397195
:104B88001AB1BCF1080F00DD98612AB103F11C01CC
:104B98000020002800F08380BCF10C0F40F38880CF
:104BA8000D206AB100214FF0030C6CF307016FF37D
:104BB8000F216FF317414FF0010C6CF31F6119615E
:104BC80000216FF300016FF341016FF382016FF36E
:104BD800C501032363F38811C0F3090363F352216A
:104BE8006FF3DE416FF3DF710023394813F082FC65
:104BF800AD46032C5FD0032059F00DFB002848D0A8
:104C0800334B1B6813F0070F3DD06C4688B06B46DA
:104C180013F1100253D010211AB1042901DD2F4DD0
:104C28005D6112B1082900DD986122B10C2902DD0D
:104C38004FF4A370D8610F2944DD102052B1002130
:104C4800042565F307016FF30F216FF317416FF325
:104C58001F61196100216FF300016FF341016FF3C8
:104C680082016FF3C501012363F3881100F47D739A
:104C780063F352216FF3DE416FF3DF7100231448B1
:104C880013F038FCA546404080F311884FF003002C
:104C980002DF0837BD46B0BD6FF0004C68E707F18A
:104CA800080E86441EF804EC01F801EB013070E7A9
:104CB8006FF01B0075E703200DF000FD9EE76FF015
:104CC8000041A9E76FF01B00B8E7704718630020A0
:104CD800F40D0020B4B906003CB4060090B10600FB
:104CE8002DE9F84300AFA54B93F8BC3E032B12D136
:104CF80005460C469AB9611B01F51C5110319F4BB2
:104D080093F8CC3E012B16D0022B00F08F8053B1C4
:104D1800BD46BDE8F8830020FFF706FFF8E702204C
:104D2800FFF702FFE7E7954B0022C3F8D02E0120DA
:104D3800FFF7FAFEECE7914AB2F8CE3E581CA2F80B
:104D4800CE0E092B64D98D4BD3F8D03E8C4C84FB06
:104D58000324DB17C3EBA40404F2F31240F2E63396
:104D68009A425FD90220FFF7DFFE002CD0D0002C3A
:104D780069DB04F5FA74834B83FB04234FEAE47878
:104D8800C8EBA31845F207239C4265DD7E4B1B68E0
:104D980013F0060F00F0B2806E4688B06B4613F130
:104DA800100253D00C211AB1042901DD774858614B
:104DB80012B1082900DD9C610B294ADD0C2052B193
:104DC8000021032464F307016FF30F216FF31741E8
:104DD8006FF31F61196100216FF300016FF3410147
:104DE8006FF382016FF3C501022363F3881100F4A6
:104DF8007B7363F352216FF3DE416FF3DF7100239E
:104E0800614813F077FBB5464FF0140800267DE0A3
:104E18001346D2F8B82E891AD3F8D02E1144C3F805
:104E2800D01E75E70320FFF77FFE9EE7534AB2F8CE
:104E3800CE3E591CA2F8CE1E042B7FF669AF002087
:104E4800FFF772FE64E7A4F5FA7494E76FF0004187
:104E5800A9E76FF01B00B2E74D4B9C424ADA4A4B78
:104E68001B6813F0060F76D06D4688B06B4613F1B9
:104E7800100239D00C211AB1042901DD43485861C8
:104E880012B1082900DD9C610B2930DD0C2052B1DC
:104E98000021032464F307016FF30F216FF3174117
:104EA8006FF31F61196100216FF300016FF3410176
:104EB8006FF382016FF3C501022363F3881100F4D5
:104EC8007B7363F352216FF3DE416FF3DF710023CD
:104ED8002D4813F00FFBAD466FF01308B8F1000F23
:104EE800BFF616AF00223EE06FF00041C3E76FF057
:104EF8001B00CCE7B8F1000F88DCEFE74FF014088F
:104F080084E700231D4AA2F80C3E01364645BFF649
:104F1800FFAE204C04F58059B9F80C3E03EB43036F
:104F28005B01043304EB4303C0220021181D64F025
:104F38006CFDA8EB0602B9F80C3E4FF47A7101FB40
:104F4800125203F2827104EB8104A260262BD8D896
:104F580001339BB2D6E76FF01308BFE72723074951
:104F6800A1F80C3E013A42457FF7D2AE034BB3F8A5
:104F78000C3E002BF2D0013B9BB2F0E718630020F7
:104F880067666666D34D6210F40D002050B40600C3
:104F9800F9ADFFFF185300202DE9F04186B000AFAE
:104FA80000237B613B61AF4BB3F80E3E002B00F052
:104FB8003A82013B9BB2AC4D05F58052A2F80E3EF9
:104FC80003EB43025201043205EB42050435002B82
:104FD80000F02B82013B9BB2A34800F58052A2F857
:104FE8000E3E03EB43046401043400EB4404043430
:104FF80007F1080207F10C0180680FF05BFAFB6803
:1050080023B9BB6813B9002800F0A080974B1B6830
:1050180013F0070F4CD002233B716E4688B06B46E5
:1050280013F1100200F003824FF00D0C22B1BCF115
:10503800040F01DD8E4959610221397122B1BCF199
:10504800080F01DD8B4999612AB103F11C01002089
:10505800002800F0EF81BCF10C0F40F3F4810D2023
:105068006AB100214FF0030C6CF307016FF30F21B5
:105078006FF317414FF0010C6CF31F6119610021A8
:105088006FF300016FF341016FF382016FF3C50104
:10509800012363F38811C0F3090363F352216FF30B
:1050A800DE416FF3DF710023704813F023FAB54631
:1050B8006E4B1B6813F0070F42D06E4688B06B46E4
:1050C80013F1100200F0C28110211AB1042901DD88
:1050D8006948586122B1082902DD6FF00B00986118
:1050E80022B10C2902DD40F2CE20D8610F2940F30D
:1050F800B08110205AB100214FF0040C6CF3070165
:105108006FF30F216FF317416FF31F6119610021CE
:105118006FF300016FF341016FF382016FF3C50173
:10512800012363F3881100F47D7363F352216FF355
:10513800DE416FF3DF7100234C4813F0DBF9B5460D
:10514800404080F311884FF0030002DF0022002363
:1051580007F11401444880680FF00AF80646002851
:1051680000F0AD80414B1B6813F0070F4CD00223B1
:105178003B71E84688B06B4613F1100200F06C8171
:105188004FF00D0C22B1BCF1040F01DD3849596113
:105198000221397122B1BCF1080F01DD374999614B
:1051A8002AB103F11C010020002800F05881BCF14D
:1051B8000C0F40F35D810D206AB100214FF0030C04
:1051C8006CF307016FF30F216FF317414FF0010CD8
:1051D8006CF31F61196100216FF300016FF3410146
:1051E8006FF382016FF3C501012363F38811C0F3E4
:1051F800090363F352216FF3DE416FF3DF7100237C
:105208001A4813F077F9C546184B1B6813F0070FB7
:105218004FD0E84688B06B4613F1100200F02B819E
:1052280010211AB1042901DD1348586112B1082967
:1052380000DD9E6122B10C2902DD40F2D220D86146
:105248000F2940F31B811020D2B10021042666F3F8
:1052580007016FF30F216FF317416FF31F61196196
:105268000EE000BF1863002018530020F40D002042
:105278005CB306008CB4060090B10600A0B406002A
:1052880000216FF300016FF341016FF382016FF3A7
:10529800C501012363F3881100F47D7363F3522180
:1052A8006FF3DE416FF3DF710023804813F022F9BA
:1052B800C546404080F311884FF0030002DF00220A
:1052C800002307F110017A4880680EF051FF064666
:1052D800002800F09C80754B1B6813F0070F4CD01A
:1052E80002233B71E84688B06B4613F1100200F0C8
:1052F800C8804FF00D0C22B1BCF1040F01DD6D49DF
:1053080059610221397122B1BCF1080F01DD6A49E6
:1053180099612AB103F11C010020002800F0B48033
:10532800BCF10C0F40F3B9800D206AB100214FF099
:10533800030C6CF307016FF30F216FF317414FF064
:10534800010C6CF31F61196100216FF300016FF309
:1053580041016FF382016FF3C501012363F38811E3
:10536800C0F3090363F352216FF3DE416FF3DF717A
:1053780000234E4813F0BEF8C5464C4B1B6813F08B
:10538800070F3ED0E84688B06B4613F1100200F0D4
:10539800878010211AB1042901DD4848586112B1EB
:1053A800082900DD9E6122B10C2902DD4FF4357019
:1053B800D8610F2977DD102052B10021042666F349
:1053C80007016FF30F216FF317416FF31F61196125
:1053D80000216FF300016FF341016FF382016FF356
:1053E800C501012363F3881100F47D7363F352212F
:1053F8006FF3DE416FF3DF7100232C4813F07AF866
:10540800C546404080F311884FF0030002DF7969F8
:1054180028460BF02DFB396920460BF0D5FA1837D2
:10542800BD46BDE8F0812723C5E52723D4E56FF005
:10543800004CFBE507F1180E86441EF814EC01F841
:1054480001EB013004E66FF01B0009E66FF0004144
:105458003BE66FF01B004DE66FF0004C92E607F15B
:10546800180E86441EF814EC01F801EB01309BE697
:105478006FF01B00A0E66FF00041D2E66FF01B0052
:10548800E2E66FF0004C36E707F1180E86441EF886
:1054980014EC01F801EB01303FE76FF01B0044E723
:1054A8006FF0004176E76FF01B0085E7F40D0020F0
:1054B800185300205CB30600A0B4060090B10600A3
:1054C800B0B59AB002AF04465F4B1B685F4A0092C2
:1054D8005F4A602138460EF041FD002850D003464F
:1054E8005C4A126812F0070F44D06D4688B00DF17F
:1054F800080C6A46183200F09A80102122B104295B
:1055080002DD5548CCF814001AB1082901DDCCF8A1
:1055180018302AB10C2903DD4FF40073CCF81C3085
:105528000F2940F3878010205AB10023042161F32A
:1055380007036FF30F236FF317436FF31F63CCF861
:10554800103000216FF300016FF341016FF3820106
:105558006FF3C501012363F3881100F47D7363F3CE
:1055680052216FF3DE416FF3DF710023394812F0E7
:10557800C1FFAD46404080F311884FF0030002DFC1
:105588000323009360233A46C02120460FF0F6FA21
:105598000346002848D02F4A126812F0070F3DD062
:1055A8006C4688B002AD6A46183246D010211AB14E
:1055B800042901DD2848686112B1082900DDAB61C2
:1055C80022B10C2902DD4FF40173EB610F2937DD9D
:1055D800102052B10023042161F307036FF30F2356
:1055E8006FF317436FF31F632B6100216FF3000103
:1055F8006FF341016FF382016FF3C501012363F378
:10560800881100F47D7363F352216FF3DE416FF369
:10561800DF7100230F4812F06DFFA546404080F36C
:1056280011884FF0030002DF6037BD46B0BD6FF050
:10563800004163E76FF01B0076E76FF00041B6E7C3
:105648006FF01B00C5E700BFB4750020EC710020A7
:10565800F4710020F40D002090B10600F0B595B06B
:1056680002AF0546796016461046FFF7DFF8B04BE3
:1056780003F58052B2F80E4E04F2827103EB8103F7
:105688009B68EB1AC2F8B83E002E68D0262C00F2B0
:10569800E9810134A74BB3F80C3EA34200F0EA813C
:1056A800A44BA3F80E4EA44B1B78002B48D0A24B5A
:1056B80000221A70A14B1B6813F0060F40D09D4BB7
:1056C800D3F8B00E6E4688B002A96B4613F11802E3
:1056D80000F0CA810C232AB1042B03DDDFF87CC259
:1056E800C1F814C012B1082B00DD88610B2B40F300
:1056F800BE810C205AB100234FF0030C6CF3070352
:105708006FF30F236FF317436FF31F630B610021D0
:105718006FF300016FF341016FF382016FF3C5016D
:10572800022363F3881100F47B7363F352216FF350
:10573800DE416FF3DF710023804812F0DBFEB546CF
:1057480004EB440464010434794B03EB440404344B
:105758007B4B1C607B4B1B78002B40F045827B68A1
:10576800002B00F0A780C022391D714B98680EF0FD
:1057780035FD0446002800F09D80704B1B6813F02F
:10578800070F4BD002233B746E4688B00DF1080C0E
:105798006B4613F1180200F02C820D2022B1042868
:1057A80002DD694BCCF8143002233B7422B108287F
:1057B80002DD664BCCF818302AB10CF11C0300212D
:1057C800002900F019820C2840F31F820D2062B1D5
:1057D8000023032161F307036FF30F236FF31743CC
:1057E800012161F31F63CCF8103000216FF3000131
:1057F8006FF341016FF382016FF3C501012363F376
:105808008811C0F3090363F352216FF3DE416FF38C
:10581800DF710023494812F06DFEB546474B1B68FF
:1058280013F0070F40D06E4688B002A96B4613F1FB
:10583800180200F0ED8110231AB1042B01DD444851
:10584800486112B1082B00DD8C6122B10C2B02DDFE
:105858004FF42370C8610F2B40F3DD81102052B143
:105868000023042464F307036FF30F236FF3174334
:105878006FF31F630B6100216FF300016FF34101A8
:105888006FF382016FF3C501012363F3881100F4FC
:105898007D7363F352216FF3DE416FF3DF710023F1
:1058A800264812F027FEB546404080F311884FF095
:1058B800030002DF0022002307F114011C4880685E
:1058C8000EF056FC044628B9224B1B6813F10C0F46
:1058D80000F0A48114F10C0F00F0E081002C00F01E
:1058E800B680164B1B6813F0070F64D002233B7475
:1058F8006E4688B00DF1080C6B4613F1180200F0E3
:10590800C1820D2022B1042802DD0F4BCCF81430DF
:1059180002233B7422B1082802DD0F4BCCF8183063
:10592800F2B10CF11C030021002900F0AE8217E04F
:10593800185300201863002008A20020F40D00204E
:10594800B875002007A200205CB3060004B5060065
:1059580090B10600F0710020A0B40600B8B40600AB
:105968000C2840F39B820D2062B10023032161F3D0
:1059780007036FF30F236FF31743012161F31F63CD
:10598800CCF8103000216FF300016FF341016FF381
:1059980082016FF3C501012363F38811C0F3090382
:1059A80063F352216FF3DE416FF3DF710023B248D6
:1059B80012F0A0FDB546B04B1B6813F0070F40D09E
:1059C8006E4688B002A96B4613F1180200F069828E
:1059D80010231AB1042B01DDA848486112B1082B25
:1059E80000DD8C6122B10C2B02DD40F2AA20C861D7
:1059F8000F2B40F35982102052B10023042464F382
:105A080007036FF30F236FF317436FF31F630B61E4
:105A180000216FF300016FF341016FF382016FF30F
:105A2800C501012363F3881100F47D7363F35221E8
:105A38006FF3DE416FF3DF7100238F4812F05AFDD8
:105A4800B546404080F311884FF0030002DF7969C2
:105A58008B4B18680AF0B8FF2846FEF7B9FF4C3799
:105A6800BD46F0BD002415E66FF0004333E66FF045
:105A78001B003FE602F0E6FF032857D08048FEF7F8
:105A8800B9FE034600284AD07B4A126812F0070F75
:105A98003FD06C4688B002AE6A46183200F09E804D
:105AA80010211AB1042901DD7448706112B1082966
:105AB80000DDB36122B10C2902DD40F27923F361E4
:105AC8000F2940F38E80102052B10023042161F386
