:10000000D4620120418B0100CB7E0500F98A0100FA
:10001000F98A0100F98A0100F98A0100F98A0100D0
:1000200000000000000000000000000089790100CD
:10003000F98A010000000000DD780100F98A010062
:10004000357A0100357A0100357A0100357A0100F0
:10005000357A0100357A0100357A0100357A0100E0
:10006000357A0100357A0100357A0100357A0100D0
:10007000357A0100357A0100357A0100357A0100C0
:10008000357A0100357A0100357A0100357A0100B0
:10009000357A0100357A0100357A0100357A0100A0
:1000A000357A0100357A0100357A0100357A010090
:1000B000357A0100357A0100357A0100357A010080
:1000C000357A0100357A0100357A0100357A010070
:1000D000357A0100357A0100357A0100357A010060
:1000E000357A0100357A0100357A0100357A010050
:1000F000357A0100357A0100357A0100357A010040
:10010000357A0100357A0100357A0100357A01002F
:10011000357A0100357A0100357A0100357A01001F
:10012000357A0100357A0100357A0100357A01000F
:10013000357A0100357A0100357A0100357A0100FF
:10014000357A0100357A0100357A0100357A0100EF
:04015000357A0100FB
:04015400FFFFFFFFAB
:1001580081F0004102E000BF83F0004330B54FEA70
:1001680041044FEA430594EA050F08BF90EA020FDD
:100178001FBF54EA000C55EA020C7FEA645C7FEA70
:10018800655C00F0E2804FEA5454D4EB5555B8BF93
:100198006D420CDD2C4480EA020281EA030382EA04
:1001A800000083EA010180EA020281EA0303362D96
:1001B80088BF30BD11F0004F4FEA01314FF4801C69
:1001C8004CEA113102D0404261EB410113F0004F7B
:1001D8004FEA03334CEA133302D0524263EB430332
:1001E80094EA050F00F0A780A4F10104D5F1200ED0
:1001F8000DDB02FA0EFC22FA05F2801841F100012B
:1002080003FA0EF2801843FA05F359410EE0A5F1FE
:1002180020050EF1200E012A03FA0EFC28BF4CF02F
:10022800020C43FA05F3C01851EBE37101F00045E5
:1002380007D54FF0000EDCF1000C7EEB00006EEBF2
:100248000101B1F5801F1BD3B1F5001F0CD349087C
:100258005FEA30004FEA3C0C04F101044FEA4452D3
:1002680012F5800F80F09A80BCF1004F08BF5FEA5A
:10027800500C50F1000041EB045141EA050130BD3A
:100288005FEA4C0C404141EB0101013C28BFB1F54C
:10029800801FE9D291F0000F04BF01460020B1FA97
:1002A80081F308BF2033A3F10B03B3F120020CDA6A
:1002B8000C3208DD02F1140CC2F10C0201FA0CF048
:1002C80021FA02F10CE002F11402D8BFC2F1200CAD
:1002D80001FA02F120FA0CFCDCBF41EA0C01904063
:1002E800E41AA2BF01EB0451294330BD6FEA0404AC
:1002F8001F3C1CDA0C340EDC04F11404C4F1200297
:1003080020FA04F001FA02F340EA030021FA04F3A8
:1003180045EA030130BDC4F10C04C4F1200220FAFF
:1003280002F001FA04F340EA0300294630BD21FA3D
:1003380004F0294630BD94F0000F83F4801306BF03
:1003480081F480110134013D4EE77FEA645C18BFF7
:100358007FEA655C29D094EA050F08BF90EA020F8E
:1003680005D054EA000C04BF1946104630BD91EA86
:10037800030F1EBF0021002030BD5FEA545C05D189
:100388004000494128BF41F0004130BD14F58004C8
:100398003CBF01F5801130BD01F0004545F0FE413C
:1003A80041F470014FF0000030BD7FEA645C1ABF71
:1003B800194610467FEA655C1CBF0B46024650EAA8
:1003C800013406BF52EA033591EA030F41F40021D4
:1003D80030BD00BF90F0000F04BF0021704730B55A
:1003E8004FF4806404F132044FF000054FF000012F
:1003F80050E700BF90F0000F04BF0021704730B5F0
:100408004FF4806404F1320410F0004548BF4042C4
:100418004FF000013EE700BF42004FEAE2014FEA19
:1004280031014FEA02701FBF12F07F4393F07F4FF4
:1004380081F06051704732F07F4208BF704793F0F7
:100448007F4F04BF41F40021704730B54FF460740A
:1004580001F0004521F000411CE700BF50EA01020D
:1004680008BF704730B54FF000050AE050EA0102B6
:1004780008BF704730B511F0004502D5404261EB26
:1004880041014FF4806404F132045FEA915C3FF467
:10049800D8AE4FF003025FEADC0C18BF03325FEA04
:1004A800DC0C18BF033202EBDC02C2F1200300FAB5
:1004B80003FC20FA02F001FA03FE40EA0E0021FADA
:1004C80002F11444BDE600BF70B54FF0FF0C4CF4C8
:1004D800E06C1CEA11541DBF1CEA135594EA0C0F7A
:1004E80095EA0C0F00F0DEF82C4481EA030621EAB5
:1004F8004C5123EA4C5350EA013518BF52EA0335F0
:1005080041F4801143F4801338D0A0FB02CE4FF0A1
:100518000005E1FB02E506F00042E0FB03E54FF0D1
:100528000006E1FB03569CF0000F18BF4EF0010EC9
:10053800A4F1FF04B6F5007F64F5407404D25FEAC5
:100548004E0E6D4146EB060642EAC62141EA555178
:100558004FEAC52040EA5E504FEACE2EB4F1FD0CBA
:1005680088BFBCF5E06F1ED8BEF1004F08BF5FEA38
:10057800500E50F1000041EB045170BD06F00046EA
:1005880046EA010140EA020081EA0301B4EB5C0497
:10059800C2BFD4EB0C0541EA045170BD41F480118F
:1005A8004FF0000E013C00F3AB8014F1360FDEBFB4
:1005B800002001F0004170BDC4F10004203C35DA90
:1005C8000C341BDC04F11404C4F1200500FA05F313
:1005D80020FA04F001FA05F240EA020001F00042B4
:1005E80021F0004110EBD37021FA04F642EB06012A
:1005F8005EEA430E08BF20EAD37070BDC4F10C0454
:10060800C4F1200500FA04F320FA05F001FA04F217
:1006180040EA020001F0004110EBD37041F1000103
:100628005EEA430E08BF20EAD37070BDC4F120050E
:1006380000FA05F24EEA020E20FA04F301FA05F276
:1006480043EA020321FA04F001F0004121FA04F21E
:1006580020EA020000EBD3705EEA430E08BF20EAEE
:10066800D37070BD94F0000F0FD101F00046400028
:1006780041EB010111F4801F08BF013CF7D041EAAA
:10068800060195F0000F18BF704703F000465200AE
:1006980043EB030313F4801F08BF013DF7D043EA7F
:1006A8000603704794EA0C0F0CEA135518BF95EA35
:1006B8000C0F0CD050EA410618BF52EA4306D1D1BC
:1006C80081EA030101F000414FF0000070BD50EADB
:1006D800410606BF1046194652EA430619D094EA65
:1006E8000C0F02D150EA013613D195EA0C0F05D14F
:1006F80052EA03361CBF104619460AD181EA0301A3
:1007080001F0004141F0FE4141F470014FF000005A
:1007180070BD41F0FE4141F4780170BD70B54FF0F5
:10072800FF0C4CF4E06C1CEA11541DBF1CEA135575
:1007380094EA0C0F95EA0C0F00F0A7F8A4EB050457
:1007480081EA030E52EA03354FEA013100F088804E
:100758004FEA03334FF0805545EA131343EA126317
:100768004FEA022245EA111545EA10654FEA0026CC
:100778000EF000419D4208BF964244F1FD0404F585
:10078800407402D25B084FEA3202B61A65EB0305E1
:100798005B084FEA32024FF480104FF4002CB6EB9E
:1007A800020E75EB030E22BFB61A754640EA0C001E
:1007B8005B084FEA3202B6EB020E75EB030E22BF5E
:1007C800B61A754640EA5C005B084FEA3202B6EB9F
:1007D800020E75EB030E22BFB61A754640EA9C005E
:1007E8005B084FEA3202B6EB020E75EB030E22BF2E
:1007F800B61A754640EADC0055EA060E18D04FEAEC
:10080800051545EA16754FEA06164FEAC30343EA8B
:1008180052734FEAC2025FEA1C1CC0D111F4801F58
:100828000BD141EA00014FF000004FF0004CB6E751
:1008380011F4801F04BF01430020B4F1FD0C88BFF0
:10084800BCF5E06F3FF6AFAEB5EB030C04BFB6EBFB
:10085800020C5FEA500C50F1000041EB045170BDEE
:100868000EF0004E4EEA113114EB5C04C2BFD4EB1B
:100878000C0541EA045170BD41F480114FF0000E9F
:10088800013C90E645EA060E8DE60CEA135594EA1B
:100898000C0F08BF95EA0C0F3FF43BAF94EA0C0F1E
:1008A8000AD150EA01347FF434AF95EA0C0F7FF493
:1008B80025AF104619462CE795EA0C0F06D152EAE7
:1008C80003353FF4FDAE1046194622E750EA4106CB
:1008D80018BF52EA43067FF4C5AE50EA41047FF4DC
:1008E8000DAF52EA43057FF4EBAE12E74FF0FF3C41
:1008F80006E000BF4FF0010C02E000BF4FF0010C12
:100908004DF804CD4FEA410C7FEA6C5C4FEA430C8A
:1009180018BF7FEA6C5C1BD001B050EA410C0CBFD9
:1009280052EA430C91EA030F02BF90EA020F00203B
:10093800704710F1000F91EA030F58BF994208BFA2
:1009480090422CBFD8176FEAE37040F0010070475F
:100958004FEA410C7FEA6C5C02D150EA013C07D1B6
:100968004FEA430C7FEA6C5CD6D152EA033CD3D001
:100978005DF8040B704700BF8446104662468C46FB
:100988001946634600E000BF01B5FFF7B7FF00282E
:1009980048BF10F1000F01BD4DF808EDFFF7F4FF57
:1009A8000CBF012000205DF808FB00BF4DF808EDE2
:1009B800FFF7EAFF34BF012000205DF808FB00BF05
:1009C8004DF808EDFFF7E0FF94BF012000205DF827
:1009D80008FB00BF4DF808EDFFF7CEFF94BF0120DC
:1009E80000205DF808FB00BF4DF808EDFFF7C4FFD5
:1009F80034BF012000205DF808FB00BF4A0011D277
:100A080012F5001211D20DD56FF47873B3EB625260
:100A18000ED44FEAC12343F0004343EA505323FA6C
:100A280002F070474FF00000704750EA013002D1E1
:100A38004FF0FF3070474FF00000704753B94AB984
:100A4800002908BF00281CBF4FF0FF314FF0FF30CE
:100A580000F00CB8ADF1080C6DE904CE00F046F8D2
:100A6800DDF804E0DDE9022304B07047704700BFF9
:100A78004FEA410C7FEA6C5C02D150EA013C0AD192
:100A88004FEA430C7FEA6C5C02D152EA033C02D184
:100A98004FF0000070474FF0010070474FEA4102E5
:100AA80012F5001215D211D56FF47873B3EB6252B8
:100AB80012D94FEAC12343F0004343EA505311F0DF
:100AC800004F23FA02F018BF404270474FF0000071
:100AD800704750EA013005D111F0004008BF6FF0AF
:100AE800004070474FF00000704700BF2DE9F04FFD
:100AF800099E88468E46154604461946002B40F046
:100B0800C6804245B2FA82F746D94FB1C7F1200CE8
:100B180008FA07F3BD40BC4020FA0CFC4CEA030E6F
:100B28004FEA15481FFA85FC220CBEFBF8F908FBB2
:100B380019E309FB0CFA42EA03439A4528D9EB1852
:100B480009F1FF3004D29A4502D9A9F102002B44D9
:100B5800A3EB0A03A4B2B3FBF8F208FB123302FBBF
:100B68000CFC44EA0344A44514D92C1902F1FF33C0
:100B780003D2A44501D9931E2C44A4EB0C0443EAE8
:100B880000401EB1FC40002334607360BDE8F08F64
:100B98004846DDE71346F0E702B9FFDE8FBBA8EB56
:100BA800020301214FEA154EAAB2200CB3FBFEFC4A
:100BB8000EFB1C330CFB02F840EA0343984562D94C
:100BC800EB180CF1FF3004D2984502D9ACF10200C1
:100BD8002B44A3EB0803A4B2B3FBFEFC0EFB1C33AF
:100BE8000CFB02F244EA0344A2424ED92C190CF140
:100BF800FF3304D2A24202D9ACF102032C44A41A56
:100C0800BDE7C7F1200CBD4008FA07F3BC4028FA3D
:100C18000CF94FEA154E20FA0CFC4CEA0302ABB271
:100C2800B9FBFEFC110C0EFB1C900CFB03F841EA0F
:100C38000040804523D928180CF1FF3104D28045A3
:100C480002D9ACF102012844A0EB080092B2B0FB33
:100C5800FEFC0EFB1C000CFB03F842EA004398451F
:100C68000FD9EB180CF1FF3204D2984502D9ACF138
:100C780002022B44A3EB080342EA014192E76146D2
:100C8800E2E76246F6E76046A3E76346B7E743450F
:100C980005D90EB1C6E900080021084676E7B3FA7F
:100CA80083FCBCF1000F10D1434501D382420AD81E
:100CB800841A68EB030301209E46002E68D0C6E91B
:100CC800004E002162E76046F7E7CCF1200E03FAF8
:100CD8000CF302FA0CF500FA0CF722FA0EF428FAD3
:100CE8000EFB20FA0EF11C4308FA0CF34FEA1449E4
:100CF8001943A3B20A0CBBFBF9F809FB18BB08FBA4
:100D080003FA42EA0B4292453ED9A21808F1FF3095
:100D180004D2924502D9A8F102002244A2EB0A02A9
:100D280089B2B2FBF9F809FB182208FB03F341EA80
:100D3800024293422AD9A21808F1FF3104D2934201
:100D480002D9A8F10201224441EA0040D21AA0FBCC
:100D5800059842454B46414602D306D14F4504D239
:100D68000138B9EB050368EB04018EB1FC1A62EB9C
:100D7800010707FA0EFE24FA0CF327FA0CF74EEADD
:100D88000303C6E900379CE74046C7E74146DBE76F
:100D98003146FBE670B4840746D04C1E002941D08A
:100DA800D5B2034602E0611EE4B30C4603F8015BCA
:100DB8009907F8D1032C2ED9D5B245EA05250F2C71
:100DC80045EA054519D9264603F11001103E0F2EB4
:100DD80041F8105C41F80C5C41F8085C41F8045C8F
:100DE80001F11001F2D8A4F1100121F00F0104F073
:100DF8000F041031032C0B440DD91E46214604392B
:100E0800032946F8045BFAD8211F21F003010431B5
:100E18000B4404F003042CB1D2B21C4403F8012B98
:100E2800A342FBD170BC70470C460346C2E710F8DA
:100E3800012B11F8013B012A28BF9A42F7D0D01A9A
:100E48007047034613F8012B002AFBD1181A013802
:100E5800704700000000000008B54FF4344303FB5E
:100E680000F04008FFF7B6FA08A3D3E90023FFF71C
:100E780055FC08A3D3E90023FFF726FBFFF7BEFDC7
:100E8800014B186008BD00BF0437002000000000B7
:100E980000F945410000E0FFFFFFEF4100000000BE
:100EA80038B52DED028BB0EE408A044668B1F7EEF6
:100EB800007AB4EEE78AF1EE10FA12DDB7EE008A96
:100EC80084ED068ABDEC028B38BD0F4D72232A468D
:100ED8000E490F4855F044F87221284655F039F864
:100EE800E5E718EE100AFFF797FA05A3D3E9002300
:100EF800FFF75CFD0028E3D09FED068AE0E700BF1E
:100F0800FCA9F1D24D62503FF04A06001C4B060086
:100F1800BC2506006F12833A2DE9F04F456A044656
:100F280010EE10AA2DED048B93B057EC106BDDF882
:100F38008080BB46069109920C9375B9102052F037
:100F480079FC0246606220B9A74BEA21A74852F013
:100F580041FCC0E901550560C560636A196851B173
:100F68005A680123204693404A608B6053F08CFDF9
:100F7800636A00221A603B1EADBF0023012223F0E2
:100F8800004BC8F800309A4BB8BFC8F8002033EAC5
:100F98000B031BD142F20F730C9A1360CBF31303AC
:100FA800334300F08F85219B63B9924B22E0924B2B
:100FB80001930833219A1360019813B0BDEC048B98
:100FC800BDE8F08F8B4B01930333F3E70022002336
:100FD80050465946FFF7E0FC80464BEC19AB58B138
:100FE80001230C9A1360219B002B00F0688583482D
:100FF8001860431E0193DFE7CBF30A5510AA11A925
:1010080020464BEC10AB53F0C1FF08EE100A002D40
:1010180000F0828019EE903A5646A5F2FF35CDF8D9
:101028003880C3F3130343F07F5747F44017002277
:10103800734B30463946FFF78FF865A3D3E9002391
:10104800FFF742FA64A3D3E90023FFF787F80646BF
:101058000F462846FFF7CEF961A3D3E90023FFF72F
:1010680033FA02460B4630463946FFF777F806460C
:101078000F46FFF713FD0022009000233046394643
:10108800FFF794FC50B10098FFF7B4F932463B469D
:10109800FFF782FC10B9009B013B0093009B162BC5
:1010A80059D8009A574B03EBC20351EC190BD3E9FB
:1010B8000023FFF77BFC00284FD0009B013B0093E7
:1010C80000230B93109B5D1B6B1E059349BFC5F155
:1010D800010300230493002354BF04930593009B4A
:1010E800002B3CDB059B009A13440A9205930023CE
:1010F8000793069B092B00F28980052BC5BF043B8B
:10110800002501250693069B023B032B00F28980EC
:10111800DFE803F02E3B395ADDE910531D4405F290
:101128003243202BC6BFC3F1400305F21240C3F17E
:10113800200305F1FF35C5BF0BFA03F326FA00F0CB
:1011480006FA03F01843FFF745F901230646A1F113
:10115800F8770E936BE70123B3E70B90B2E7049B94
:10116800009A9B1A04935342079300230A93C0E7FB
:1011780000230893099B002B56DC01231A46CDE96E
:10118800023309920CE00123F3E70023099A08933C
:10119800009B134402930133012B0393B8BF01232F
:1011A8000022606A4260042202F1140641689E42ED
:1011B8003ED9204653F028FC019000283CD1124B20
:1011C80002464FF4D571C1E60123DFE7AFF3008093
:1011D80061436F63A787D23FB3C8608B288AC63F35
:1011E800FB799F501344D33F795A0700905A070060
:1011F8000000F07F755A07006C5A0700495A07002B
:101208000000F83FD01D0600045B070001250023FD
:10121800089506934FF0FF330022CDE902331223DD
:10122800AFE701230893F5E7099BCDE90233B7E758
:10123800013152004160B7E7636A019A1A60039B63
:101248000E2B00F29D80002D00F09A80009B002B51
:1012580032DD03F00F03B64A02EBC303D3E900897A
:10126800009BD8054FEA231716D5B24B07F00F0796
:101278000325D3E9082351EC190BFFF74FFA8246EF
:101288008B46AC4E57B942464B4650465946FFF737
:1012980045FA82468B4628E00225F2E7F90708D589
:1012A800404649460135D6E90023FFF70DF9804647
:1012B80089467F100836E5E700F09B80009B0225F1
:1012C8009C4F5E429A4B06F00F02361103EBC203A5
:1012D80051EC190BD3E90023FFF7F6F800238246F7
:1012E8008B46002E7AD1002BD3D10B9B002B00F01C
:1012F80082800022904B50465946FFF757FB002842
:1013080079D0039B002B76D0029B002B36DD009B07
:101318005046594600225F1E884BFFF7D5F8013525
:1013280082468B46029E2846D046FFF763F852460F
:101338005B46D946FFF7C8F80022814BFEF70EFF3F
:101348008246A1F1507B002E58D100227D4B4046A9
:101358004946FEF701FF52465B4680468946FFF73D
:1013680043FB002840F0938252460BF1004340466D
:101378004946FFF71BFB002840F087825BEC19AB5E
:10138800119B002BC0F24881009A0E2A00F3448179
:10139800674B03EBC203D3E90089099B002B80F25A
:1013A800D580039B002B00F3D18040F06D82002292
:1013B800644B40464946FFF787F852465B46FFF7BD
:1013C80009FB039E3746002840F043823123019DE4
:1013D80005F8013B009B013300933EE2F20705D577
:1013E8000135D7E90023FFF76FF801237610083796
:1013F80077E7022579E7009F039E94E701994C4B14
:10140800314403EBC6030D91089953E902230029DF
:1014180043D000204C49FFF781F952465B46FEF75E
:101428009BFE019D82468B4649464046FFF736FBA8
:101438000646FEF7DFFF024630360B464046494671
:10144800FEF78AFE52465B4605F8016B80468946E0
:10145800FFF7ACFA002863D142464B4600203649D4
:10146800FEF77AFE52465B46FFF7A0FA002840F0E6
:10147800B5800D9B9D4281D00022304B5046594685
:10148800FFF722F8002282468B46404649462B4BFE
:10149800FFF71AF880468946C6E750465946FFF7CF
:1014A80013F80D9B82468B46019D0F934946404693
:1014B800FFF7F4FA0646FEF79DFF02460B46404644
:1014C80049463036FEF748FE0D9B05F8016B80460D
:1014D8009D4289464FF0000224D11B4B5046594685
:1014E800FEF73CFE02460B4640464946FFF77CFAAB
:1014F800002873D152465B4600201349FEF72CFEA4
:1015080002460B4640464946FFF750FA00283FF48A
:1015180035AF0F9D6B1E0F9315F8013C302BF8D09B
:10152800009749E0054BFEF7CFFF80468946BDE7A7
:10153800D01D0600A81D06000000F03F0000244052
:1015480000001C40000014400000E03F56465F4683
:10155800019D42464B4630463946FFF7DFF8FFF714
:101568009DFA8246FEF746FF42464B46FEF7ACFF21
:10157800024630460AF130060B463946FEF7ECFDC6
:1015880005F8016B019E0246039F0B46AE1BB7424E
:1015980035D1FEF7E3FD42464B4606460F46FFF7B8
:1015A80023FAD0B942464B4630463946FFF7F4F99C
:1015B80010B11AF0010F10D1204618EE101A53F08E
:1015C80063FA002300982B7001300C9B1860219B54
:1015D800002B3FF4F1AC1D60EEE4009F2B461D4646
:1015E80013F8012D392A06D1019A9A42F7D13022EF
:1015F800019901370A701A7801321A7090E70022AF
:10160800A44BFEF761FF0022002306460F46FFF7B2
:10161800C3F900289DD0CFE7089A002A00F0D580AA
:10162800069A012A00F3B9800E9A002A00F0B180C8
:1016380003F23343079E049D049A012120461A446D
:101648000492059A1A44059253F088FA0746002D29
:101658000CDD059B002B09DDAB42049AA8BF2B4685
:10166800D21AED1A0492059AD31A0593079B1BB355
:10167800089B002B00F0AD80002E13DD3946324662
:10168800204653F029FB18EE102A0146074620464B
:1016980053F07AFA804618EE101A204608EE108A9F
:1016A80053F0F2F9079B9A1B06D018EE101A204641
:1016B80053F012FB08EE100A0121204653F04EFAAF
:1016C8000A9B0646002B40F386801A4601462046B0
:1016D80053F002FB069B0646012B7FDD4FF0000806
:1016E800336906EB830318695FF0E6FDC0F120005B
:1016F800059B184410F01F0000F09180C0F12003F2
:10170800042B40F38980C0F11C00049B054403446A
:101718000493059B03440593049B002B07DD18EEF7
:10172800101A1A46204653F031FB08EE100A059BA2
:10173800002B05DD31461A46204653F027FB0646A6
:101748000B9B002B6DD0314618EE100A5FF003FE9C
:10175800002866DA009B18EE101A0A222046013B80
:101768000093002353F0B2F9089B08EE100A002BEF
:1017780000F0AF81002339460A22204653F0A6F92B
:10178800029B0746002B00F38D80069B022B50DC42
:1017980088E0109BC3F136034CE7039B5E1E079B52
:1017A800B342B7BF079B9E1B0796F21ABFBF0A9B9F
:1017B80000269B180A93039B002BB7BFDDE9032380
:1017C800DDE903359D1A002336E7079E049D089F2F
:1017D8003DE7079A69E7069B012B18DCBAF1000F71
:1017E80015D1CBF3130393B92BF000431B0D1B0545
:1017F80083B1049B4FF0010801330493059B013327
:1018080005930A9B002B7FF46BAF012070E74FF024
:101818000008F6E79846F4E73FF47EAF18461C3018
:1018280073E7039B002B37DC069B022B34DD039BFD
:101838000293029B6BB931460522204653F046F9C4
:101848000146064618EE100A5FF085FD00283FF7AE
:10185800BDAD099B019DDB4300934FF00008314665
:10186800204653F011F9002F3FF4A6AEB8F1000F4F
:1018780005D0B84503D04146204653F005F939460E
:10188800204653F001F997E600263746E1E700972E
:1018980037469BE500002440089B002B00F0CA80D7
:1018A800039B0293002D05DD39462A46204653F056
:1018B8006DFA0746B8F1000F5BD07968204653F0FF
:1018C800A3F8054628B9874B024640F2EA21FFF7FC
:1018D8003DBB3A6907F10C010C30023292005FF00F
:1018E8002AFA01222946204653F050FA019BB846AD
:1018F800074603F10109DDE90123134405930AF0C2
:1019080001030493314618EE100A5FF0DEFB4146EE
:10191800029000F1300A18EE100A09F1FF3B5FF05F
:101928001AFD3A4603903146204653F09FFAC268A2
:10193800054602BB014618EE100A5FF00CFD024690
:1019480029462046079253F09FF84D46DDE90632B6
:1019580043EA0201049B0B430FD1BAF1390F2AD095
:10196800039B002B02DD029B03F1310A8BF800A0D8
:1019780075E73846BAE70122E2E7039B002B04DB50
:1019880006990B4304990B4322D1002AEEDD18EE89
:10199800101A0122204653F0F9F9314608EE100AD0
:1019A8005FF0D9FC002803DCE0D11AF0010FDDD08C
:1019B800BAF1390FD7D139238BF800302B461D46A1
:1019C800013B15F8012C392A70D001321A7046E70C
:1019D800002A07DDBAF1390FEDD00AF101038BF8BF
:1019E80000303CE7059B09F801AC994546D018EE54
:1019F800101A00230A22204653F068F8B84508EE6A
:101A0800100A4FF000034FF00A024146204606D163
:101A180053F05CF88046074609F1010972E753F074
:101A280055F83946804600230A22204653F04EF8DE
:101A38000746F1E7039B0293019D314618EE100A11
:101A48005FF043FB019B00F1300A05F801ABEA1A8D
:101A5800029B934209DD18EE101A00230A22204641
:101A680053F034F808EE100AE7E7029B4FF000083D
:101A7800002BCCBF1D460125019B1D4418EE101AF2
:101A88000122204653F082F9314608EE100A5FF031
:101A980062FC002892DC02D11AF0010F8ED12B468D
:101AA8001D4613F8012D302AFAD0D8E6019A9A4239
:101AB80085D1009B0133009331231370CFE60A4B85
:101AC800FFF798BA219B002B7FF471AA074BFFF709
:101AD80091BA029B002BAFDC069B022B3FF7A9AE05
:101AE800AAE700BF045B0700485A07006C5A0700C2
:101AF800044B0122D3E8EF1FC3E8E02F0028F9D1F7
:101B0800704700BFB0310020B0B582B000AFA84B1D
:101B18001B6813F0040F3AD06C4688B06B4613F17B
:101B2800100200F003830C211AB1042901DDA14839
:101B380058611AB1082901DD9F4898610B2940F3C3
:101B4800F8820C2052B10021032565F307016FF3D9
:101B58000F216FF317416FF31F61196100216FF3B4
:101B680000016FF341016FF382016FF3C501042394
:101B780063F3881100F47B7363F352216FF3DE4142
:101B88006FF3DF7100238A480FF088FAA54613F037
:101B9800C7FE874B1B6813F0040F3AD06C4688B019
:101BA8006B4613F1100200F0C7820C211AB1042908
:101BB80001DD824858611AB1082901DD7E48986123
:101BC8000B2940F3BC820C2052B10021032565F398
:101BD80007016FF30F216FF317416FF31F6119614D
:101BE80000216FF300016FF341016FF382016FF37E
:101BF800C501042363F3881100F47B7363F3522156
:101C08006FF3DE416FF3DF71002369480FF046FA86
:101C1800A54653F01EFC0446002800F09C80644B47
:101C28001B6813F0070F4CD002233B716D4688B038
:101C38006B4613F1100200F085824FF00D0C22B1B3
:101C4800BCF1040F01DD5E4959610221397122B1ED
:101C5800BCF1080F01DD5B4999612AB103F11C0051
:101C68000021002900F07182BCF10C0F40F376824C
:101C78000D206AB100214FF0030C6CF307016FF3DC
:101C88000F216FF317414FF0010C6CF31F611961BD
:101C980000216FF300016FF341016FF382016FF3CD
:101CA800C501012363F38811C0F3090363F35221CB
:101CB8006FF3DE416FF3DF7100233D480FF0EEF95B
:101CC800AD463B4B1B6813F0070F3ED06D4688B0FE
:101CD8006B4613F1100200F0448210211AB1042956
:101CE80001DD3948586112B1082900DD9C611AB13B
:101CF8000C2901DD3320D8610F2940F335821020EB
:101D080052B10021042464F307016FF30F216FF32C
:101D180017416FF31F61196100216FF300016FF321
:101D280041016FF382016FF3C501012363F3881149
:101D380000F47D7363F352216FF3DE416FF3DF71BB
:101D480000231B480FF0AAF9AD46404080F31188E4
:101D58004FF0030002DF0AF0C3F90446002800F040
:101D6800AE80134B1B6813F0070F5ED002233B7144
:101D78006D4688B06B4613F1100200F0F8814FF001
:101D88000D0C22B1BCF1040F01DD0D49596102218E
:101D9800397122B1BCF1080F01DD0C499961BAB162
:101DA80003F11C000021002900F0E48110E000BFCD
:101DB800800B0020981E060090200600B81E060022
:101DC800CC1E0600D01E0600EC1E0600101F0600E2
:101DD800BCF10C0F40F3D7810D206AB100214FF000
:101DE800030C6CF307016FF30F216FF317414FF0EA
:101DF800010C6CF31F61196100216FF300016FF38F
:101E080041016FF382016FF3C501012363F3881168
:101E1800C0F3090363F352216FF3DE416FF3DF71FF
:101E28000023AA480FF03AF9AD46A84B1B6813F0F7
:101E3800070F3ED06D4688B06B4613F1100200F0D4
:101E4800A58110211AB1042901DDA148586112B1F8
:101E5800082900DD9C611AB10C2901DD3620D86102
:101E68000F2940F39681102052B10021042464F315
:101E780007016FF30F216FF317416FF31F611961AA
:101E880000216FF300016FF341016FF382016FF3DB
:101E9800C501012363F3881100F47D7363F35221B4
:101EA8006FF3DE416FF3DF71002388480FF0F6F817
:101EB800AD46404080F311884FF0030002DF834BAA
:101EC8001B6813F0040F3AD06C4688B06B4613F1C8
:101ED800100200F061810C211AB1042901DD7D484E
:101EE80058611AB1082901DD7B4898610B2940F334
:101EF80056810C2052B10021032565F307016FF3C9
:101F08000F216FF317416FF31F61196100216FF300
:101F180000016FF341016FF382016FF3C5010423E0
:101F280063F3881100F47B7363F352216FF3DE418E
:101F38006FF3DF71002365480FF0B0F8A54608F08D
:101F4800A1FF624B1B6813F0040F3AD06C4688B0AF
:101F58006B4613F1100200F025810C211AB10429F7
:101F680001DD5E4858611AB1082901DD5A489861B7
:101F78000B2940F31A810C2052B10021032565F387
:101F880007016FF30F216FF317416FF31F61196199
:101F980000216FF300016FF341016FF382016FF3CA
:101FA800C501042363F3881100F47B7363F35221A2
:101FB8006FF3DE416FF3DF71002344480FF06EF8D2
:101FC800A546474805F050FD0446002800F00D815D
:101FD8003E4B1B6813F0070F4CD002233B716D4634
:101FE80088B06B4613F1100200F0E2804FF00D0C40
:101FF80022B1BCF1040F01DD3A495961022139715E
:1020080022B1BCF1080F01DD374999612AB103F10A
:102018001C000021002900F0CE80BCF10C0F40F319
:10202800D3800D206AB100214FF0030C6CF3070137
:102038006FF30F216FF317414FF0010C6CF31F6121
:10204800196100216FF300016FF341016FF3820101
:102058006FF3C501012363F38811C0F3090363F328
:1020680052216FF3DE416FF3DF71002317480FF041
:1020780015F8AD46154B1B6813F0070F4FD06D468A
:1020880088B06B4613F1100200F0A18010211AB13C
:10209800042901DD0E48586112B1082900DD9C6150
:1020A8001AB10C2901DD3D20D8610F2940F3928037
:1020B8001020DAB10021042464F307016FF30F2123
:1020C8006FF317416FF31F6119610FE0800B002058
:1020D800EC1E06002C1F060090200600441F060078
:1020E800F91A0000CC1E0600581F060000216FF3E5
:1020F80000016FF341016FF382016FF3C501012302
:1021080063F3881100F47D7363F352216FF3DE41AA
:102118006FF3DF71002331480EF0C0FFAD46404039
:1021280080F311884FF0030002DF5EE06FF000419A
:10213800FAE46FF01B0005E56FF0004136E56FF03B
:102148001B0041E56FF0004C79E507F1080E8E445D
:102158001EF804EC00F801EB013182E56FF01B007A
:1021680087E56FF00041B9E56FF01B00C8E56FF037
:10217800004C06E607F1080E8E441EF804EC00F841
:1021880001EB01310FE66FF01B0026E66FF000410E
:1021980058E66FF01B0067E66FF000419CE66FF0B1
:1021A8001B00A7E66FF00041D8E66FF01B00E3E6DE
:1021B8006FF0004C1CE707F1080E8E441EF804EC83
:1021C80000F801EB013125E76FF01B002AE76FF0FB
:1021D80000415CE76FF01B006BE700BF800B00203D
:1021E80040F6CD4000213FF005FFB44BD3E8AF3FA8
:1021F800002BF5D0B24B1B6813F0040F3AD06C4695
:1022080088B06B4613F1100200F042830C211AB11A
:10221800042901DDAB4858611AB1082901DDAA4833
:1022280098610B2940F337830C2052B10021032514
:1022380065F307016FF30F216FF317416FF31F6108
:10224800196100216FF300016FF341016FF38201FF
:102258006FF3C501042363F3881100F47B7363F300
:1022680052216FF3DE416FF3DF71002394480EF0C3
:1022780015FFA546924B1B6813F0040F3AD06C4625
:1022880088B06B4613F1100200F008830C211AB1D4
:10229800042901DD8D4858611AB1082901DD8A48F1
:1022A80098610B2940F3FD820C2052B100210325CF
:1022B80065F307016FF30F216FF317416FF31F6188
:1022C800196100216FF300016FF341016FF382017F
:1022D8006FF3C501042363F3881100F47B7363F380
:1022E80052216FF3DE416FF3DF71002374480EF063
:1022F800D5FEA54600F076FE0446002800F09C8036
:102308006F4B1B6813F0070F4CD002233B716D46CF
:1023180088B06B4613F1100200F0C6824FF00D0C26
:1023280022B1BCF1040F01DD6949596102213971FB
:1023380022B1BCF1080F01DD664999612AB103F1A8
:102348001C000021002900F0B282BCF10C0F40F300
:10235800B7820D206AB100214FF0030C6CF307011E
:102368006FF30F216FF317414FF0010C6CF31F61EE
:10237800196100216FF300016FF341016FF38201CE
:102388006FF3C501012363F38811C0F3090363F3F5
:1023980052216FF3DE416FF3DF71002348480EF0DE
:1023A8007DFEAD46464B1B6813F0070F3ED06D46C9
:1023B80088B06B4613F1100200F0858210211AB123
:1023C800042901DD4448586112B1082900DD9C61E7
:1023D8001AB10C2901DD4720D8610F2940F3768214
:1023E800102052B10021042464F307016FF30F2178
:1023F8006FF317416FF31F61196100216FF300013B
:102408006FF341016FF382016FF3C501012363F399
:10241800881100F47D7363F352216FF3DE416FF38B
:10242800DF71002326480EF039FEAD46404080F3A8
:1024380011884FF0030002DF214B1B6813F0040FD3
:102448004ED06C4688B06B4613F1100200F0418202
:102458000C211AB1042901DD204858611AB1082954
:1024680001DD194898610B2940F336820C2052B1DE
:102478000021032565F307016FF30F216FF317415F
:102488006FF31F61196100216FF300016FF34101C0
:102498006FF382016FF3C501042363F3881100F41D
:1024A8007B7363F352216FF3DE416FF3DF71002317
:1024B80003480EF0F3FDA54612E000BFB03100203E
:1024C800800B0020781F0600902006009C1F060045
:1024D800CC1E0600B81F0600EC1E0600E01F060012
:1024E80000F02CFBAC4B1B6813F0040F3AD06C4681
:1024F80088B06B4613F1100200F0F1810C211AB17B
:10250800042901DDA54858611AB1082901DDA4484C
:1025180098610B2940F3E6810C2052B10021032574
:1025280065F307016FF30F216FF317416FF31F6115
:10253800196100216FF300016FF341016FF382010C
:102548006FF3C501042363F3881100F47B7363F30D
:1025580052216FF3DE416FF3DF7100238E480EF0D6
:102568009DFDA54601F02CFA0446002800F09C8049
:10257800894B1B6813F0070F4CD002233B716D4643
:1025880088B06B4613F1100200F0AF814FF00D0CCC
:1025980022B1BCF1040F01DD824959610221397170
:1025A80022B1BCF1080F01DD7F4999612AB103F11D
:1025B8001C000021002900F09B81BCF10C0F40F3A6
:1025C800A0810D206AB100214FF0030C6CF30701C4
:1025D8006FF30F216FF317414FF0010C6CF31F617C
:1025E800196100216FF300016FF341016FF382015C
:1025F8006FF3C501012363F38811C0F3090363F383
:1026080052216FF3DE416FF3DF71002362480EF051
:1026180045FDAD46604B1B6813F0070F3ED06D4675
:1026280088B06B4613F1100200F06E8110211AB1C8
:10263800042901DD5D48586112B1082900DD9C615B
:102648001AB10C2901DD4E20D8610F2940F35F81B2
:10265800102052B10021042464F307016FF30F2105
:102668006FF317416FF31F61196100216FF30001C8
:102678006FF341016FF382016FF3C501012363F327
:10268800881100F47D7363F352216FF3DE416FF319
:10269800DF71002340480EF001FDAD46404080F355
:1026A80011884FF0030002DF09F0EEFA0446002813
:1026B80000F0AB80384B1B6813F0070F4CD0022397
:1026C8003B716D4688B06B4613F1100200F0228111
:1026D8004FF00D0C22B1BCF1040F01DD31495961F5
:1026E8000221397122B1BCF1080F01DD304999612D
:1026F8002AB103F11C000021002900F00E81BCF171
:102708000C0F40F313810D206AB100214FF0030C28
:102718006CF307016FF30F216FF317414FF0010CB2
:102728006CF31F61196100216FF300016FF3410120
:102738006FF382016FF3C501012363F38811C0F3BE
:10274800090363F352216FF3DE416FF3DF71002356
:1027580011480EF0A3FCAD460F4B1B6813F0070F92
:102768004DD06D4688B06B4613F1100200F0E18041
:1027780010211AB1042901DD0C48586112B1082949
:1027880000DD9C611AB10C2901DD5120D8610F29A7
:1027980040F3D28010200DE0800B0020F81F0600C7
:1027A80090200600CC1E060014200600EC1E060031
:1027B8003420060052B10021042464F307016FF3AA
:1027C8000F216FF317416FF31F61196100216FF338
:1027D80000016FF341016FF382016FF3C50101231B
:1027E80063F3881100F47D7363F352216FF3DE41C4
:1027F8006FF3DF71002355480EF050FCAD464040A2
:1028080080F311884FF0030002DF504B1B6813F070
:10281800040F3AD06C4688B06B4613F1100200F0F2
:102828008E800C211AB1042901DD494858611AB17A
:10283800082901DD474898610B2940F383800C2063
:1028480052B10021032565F307016FF30F216FF3E0
:1028580017416FF31F61196100216FF300016FF3D6
:1028680041016FF382016FF3C501042363F38811FB
:1028780000F47B7363F352216FF3DE416FF3DF7172
:10288800002332480EF00AFCA54601F0B9F9FCE72E
:102898006FF00041BBE46FF01B00C6E46FF000412D
:1028A800F5E46FF01B0000E56FF0004C38E507F128
:1028B800080E8E441EF804EC00F801EB013141E5E6
:1028C8006FF01B0046E56FF0004178E56FF01B00E4
:1028D80087E56FF00041BCE56FF01B00C7E56FF0BE
:1028E80000410CE66FF01B0017E66FF0004C4FE656
:1028F80007F1080E8E441EF804EC00F801EB0131D4
:1029080058E66FF01B005DE66FF000418FE66FF050
:102918001B009EE66FF0004CDCE607F1080E8E44C3
:102928001EF804EC00F801EB0131E5E66FF01B003E
:10293800EAE66FF000411CE76FF01B003AE76FF022
:1029480000416FE76FF01B007AE700BF800B0020A3
:10295800542006009020060008B5024902483DF0C0
:1029680039FD08BD20030020E81300206D4B1B79BA
:1029780003B97047B0B5ADF5F16D00AF4FF4F06431
:102988002246002107F108005EF00FFA4FF470713B
:1029980007F1080009F084FE00233B603B46624AC9
:1029A800214607F1080001F01FFC0446002800F04A
:1029B8009A805E4B1B6813F0070F4CD002233B71C3
:1029C8006D4688B06B4613F1100200F097804FF007
:1029D8000D0C22B1BCF1040F01DD554959610221EA
:1029E800397122B1BCF1080F01DD524999612AB150
:1029F80003F11C010020002800F08380BCF10C0FBB
:102A080040F387800D206AB100214FF0030C6CF36E
:102A180007016FF30F216FF317414FF0010C6CF3AF
:102A28001F61196100216FF300016FF341016FF31A
:102A380082016FF3C501012363F38811C0F3090311
:102A480063F352216FF3DE416FF3DF7100233748E0
:102A58000EF024FBAD46354B1B6813F0070F3CD036
:102A68006D4688B06B4613F1100255D010211AB18B
:102A7800042901DD3048586112B1082900DD9C6144
:102A88001AB10C2901DD7720D8610F2947DD102004
:102A980052B10021042464F307016FF30F216FF38F
:102AA80017416FF31F61196100216FF300016FF384
:102AB80041016FF382016FF3C501012363F38811AC
:102AC80000F47D7363F352216FF3DE416FF3DF711E
:102AD800002316480EF0E2FAAD46404080F3118814
:102AE8004FF0030002DF39680F4B186801F066FAEF
:102AF80001F0D2FF07F5F167BD46B0BD6FF0004C9D
:102B080067E707F1040E1EF800E001F801EB013059
:102B180071E76FF01B0076E76FF00041A7E76FF0F1
:102B28001B00B5E7B4310020D0310020F00A0020A6
:102B3800CC1E060098200600EC1E060010B582B0D8
:102B480009F04EFC01F05CFF8020FEF785F9094989
:102B5800094801F05FFF094C20463DF0B5FC002311
:102B6800009303234FF4D352054920463DF0CAFC95
:102B780002B010BDCF550500C8310020E813002071
:102B880020240120B0B584B002AF694B01221A702D
:102B980068499960022119731A711A6900920FCB5A
:102BA80001F0F4FD002800F09B800446624B1B688E
:102BB80013F0070F4BD002233B716D4688B00DF11F
:102BC800080C6B4613F1180200F09C800D2022B10E
:102BD800042802DD594BCCF8143002233B7122B192
:102BE800082802DD564BCCF818302AB10CF11C032A
:102BF8000021002900F089800C2840F38F800D20E7
:102C080062B10023032161F307036FF30F236FF30E
:102C18001743012161F31F63CCF8103000216FF3D3
:102C280000016FF341016FF382016FF3C5010123C6
:102C380063F38811C0F3090363F352216FF3DE4194
:102C48006FF3DF7100233C480EF028FAAD463A4B8B
:102C58001B6813F0070F3DD06D4688B002A96B467C
:102C680013F118025DD010231AB1042B01DD354889
:102C7800486112B1082B00DD8C611AB10C2B01DD03
:102C88004120C8610F2B4FDD102052B100230424CE
:102C980064F307036FF30F236FF317436FF31F6397
:102CA8000B6100216FF300016FF341016FF38201A3
:102CB8006FF3C501012363F3881100F47D7363F397
:102CC80052216FF3DE416FF3DF7100231A480EF0D3
:102CD800E5F9AD46404080F311884FF0030002DF6C
:102CE8000124134B1C744FF4A4720023CDE9002374
:102CF8000022002314483FF073FF144B1C70083760
:102D0800BD46B0BD6FF0004061E707F1080E8E4484
:102D18001EF804EC03F801EB01316AE76FF01B00C1
:102D28006EE76FF000439FE76FF01B00ADE700BF51
:102D3800B431002000770100F00A0020CC1E060004
:102D4800A8200600EC1E0600080C00203C210120EB
:102D5800B0B590B002AF964B1B78002B00F0B9804D
:102D6800934B00221A70934B1B7C002B00F0DC80E5
:102D7800904B1B79002B40F002818E4B1A69009210
:102D88000FCB01F0B5FB0446002800F09C808A4B6D
:102D98001B6813F0070F4BD002233B716D4688B0B8
:102DA8000DF1080C6B4613F1180200F0EC800D20B1
:102DB80022B1042802DD814BCCF8143002233B7188
:102DC80022B1082802DD7E4BCCF818302AB10CF16C
:102DD8001C030021002900F0D9800C2840F3DF8073
:102DE8000D2062B10023032161F307036FF30F2362
:102DF8006FF31743012161F31F63CCF810300021F2
:102E08006FF300016FF341016FF382016FF3C501A6
:102E1800012363F38811C0F3090363F352216FF3AD
:102E2800DE416FF3DF71002363480EF037F9AD46DA
:102E3800614B1B6813F0070F3FD06D4688B002A99D
:102E48006B4613F1180200F0AD8010231AB1042B61
:102E580001DD5C48486112B1082B00DD8C611AB1B4
:102E68000C2B01DD6020C8610F2B40F39E801020E1
:102E780052B10023042464F307036FF30F236FF3A5
:102E880017436FF31F630B6100216FF300016FF3AA
:102E980041016FF382016FF3C501012363F38811C8
:102EA80000F47D7363F352216FF3DE416FF3DF713A
:102EB800002341480EF0F2F8AD46404080F31188F7
:102EC8004FF0030002DF3B4B00221A743837BD462F
:102ED800B0BD394B1B6813F0060FF7D03A4B7B6334
:102EE8000222002362F307036FF30F236FF31743E4
:102EF8006FF31F633B6300216FF300016FF3410120
:102F08006FF382016FF3C50162F38811082363F33D
:102F180052216FF3DE416FF3DF71002307F13002B6
:102F280025480EF0BBF8D1E7234B1B6813F0060FBA
:102F3800CCD0264BFB610222002362F307036FF318
:102F48000F236FF317436FF31F63BB6100216FF308
:102F580000016FF341016FF382016FF3C50162F362
:102F68008811082363F352216FF3DE416FF3DF7199
:102F7800002307F1180210480EF090F8A6E714484D
:102F88005DF003FEF9E66FF0004011E707F1380E37
:102F98008E441EF834EC03F801EB01311AE76FF0A8
:102FA8001B001EE76FF0004350E76FF01B005FE760
:102FB8003C210120B4310020F00A0020CC1E06007C
:102FC800F4200600EC1E0600C0200600D8200600EB
:102FD800080C002008B50121014836F00BFF08BD98
:102FE800DC210600B0B500AF7E4A7F497F4836F045
:102FF80013FE7F4B984247D004467E4B1B6813F064
:10300800070F38D06D4688B06B4613F1100235D0E3
:103018000C211AB1042901DD7748586112B1082939
:1030280000DD9C610B292CDD0C205AB100214FF0EA
:10303800030C6CF307016FF30F216FF317416FF364
:103048001F61196100216FF300016FF341016FF3F4
:1030580082016FF3C501012363F3881100F47B73C8
:1030680063F352216FF3DE416FF3DF710023614890
:103078000EF014F8AD462046BD46B0BD6FF00041D5
:10308800C7E76FF01B00D0E7584836F065FE5B488D
:1030980034F014FD0446564B984245D0554B1B68F6
:1030A80013F0070F38D06D4688B06B4613F1100245
:1030B80034D00C211AB1042901DD5148586112B1EC
:1030C800082900DD9C610B292BDD0C205AB1002159
:1030D8004FF0030C6CF307016FF30F216FF31741E7
:1030E8006FF31F61196100216FF300016FF3410154
:1030F8006FF382016FF3C501012363F3881100F4B4
:103108007B7363F352216FF3DE416FF3DF710023AA
:1031180038480DF0C3FFAD462046ADE76FF00041DB
:10312800C8E76FF01B00D1E7344B1A7842F0004231
:103138003449C1F890211A7842F00042A1F5D03103
:10314800C1F88C20187834F0D1FC0446284B9842FA
:1031580045D0284B1B6813F0070F38D06D4688B050
:103168006B4613F1100234D00C211AB1042901DD89
:103178002548586112B1082900DD9C610B292BDD17
:103188000C205AB100214FF0030C6CF307016FF3C8
:103198000F216FF317416FF31F61196100216FF35E
:1031A80000016FF341016FF382016FF3C501012341
:1031B80063F3881100F47B7363F352216FF3DE41EC
:1031C8006FF3DF7100230B480DF068FFAD46204612
:1031D80052E76FF00041C8E76FF01B00D1E700200D
:1031E8004AE700BFAD54050030030020DC2106008B
:1031F8000000AD0BF40A00201C2106003D2101202F
:103208004821060000A002508821060008B552F0A7
:10321800ABF9034608B1184608BD02F037FB034670
:103228000028F8D102F02AFB054A0221084607F0D7
:103238005BFC03460028EED107F008F90346EAE7ED
:103248004D3200002DE9F04F8FB002AF81460C4699
:1032580090461E46FFF7BEFE044D95F800C0BCF12F
:10326800030F05D03437BD46BDE8F08F3E2101205D
:10327800824600237B6107F10C0207F11001B74871
:1032880008F03CF9034600284ED0B54A126812F0FF
:10329800070F43D06D4688B00DF1080C6A46183206
:1032A80000F01283102122B1042902DDAD48CCF8C8
:1032B80014001AB1082901DDCCF8183022B10C2904
:1032C80002DDDE23CCF81C300F2940F300831020E8
:1032D8005AB10023042161F307036FF30F236FF33F
:1032E80017436FF31F63CCF8103000216FF3000110
:1032F8006FF341016FF382016FF3C501012363F39B
:10330800881100F47D7363F352216FF3DE416FF38C
:10331800DF71002392480DF0C1FEAD46404080F3B6
:1033280011884FF0030002DF3B69042B40F2B8809C
:103338008B4B1B6813F0060F40F0CC820022002351
:10334800CDE9002307F10802391D844808F070F818
:10335800034600284ED0824A126812F0070F43D065
:103368006D4688B00DF1080C6A46183200F0D88214
:10337800102122B1042902DD7A48CCF814001AB1D0
:10338800082901DDCCF8183022B10C2902DDEA2326
:10339800CCF81C300F2940F3C68210205AB1002304
:1033A800042161F307036FF30F236FF317436FF3E0
:1033B8001F63CCF8103000216FF300016FF3410157
:1033C8006FF382016FF3C501012363F3881100F4E1
:1033D8007D7363F352216FF3DE416FF3DF710023D6
:1033E8005F480DF05BFEAD46404080F311884FF01A
:1033F800030002DF391D594808F052F80346002837
:103408004ED0574A126812F0070F43D06D4688B065
:103418000DF1080C6A46183200F08882102122B19A
:10342800042902DD4F48CCF814001AB1082901DD3F
:10343800CCF8183022B10C2902DDED23CCF81C3071
:103448000F2940F3768210205AB10023042161F33A
:1034580007036FF30F236FF317436FF31F63CCF862
:10346800103000216FF300016FF341016FF3820107
:103478006FF3C501012363F3881100F47D7363F3CF
:1034880052216FF3DE416FF3DF71002334480DF0F2
:1034980005FEAD46404080F311884FF0030002DF7F
:1034A8000022002307F114012C4807F085FE054689
:1034B800002800F0A8802A4B1B6813F0070F57D08C
:1034C80002233B72EB4688B002A86B4613F1180240
:1034D80000F032824FF00D0C22B1BCF1040F01DD77
:1034E800214B436102233B7222B1BCF1080F01DD7D
:1034F8001E4B83612AB100F11C030021002900F052
:103508001E82BCF10C0F40F323824FF00D0C5AB110
:103518000023032161F307036FF30F236FF31743AE
:10352800012161F31F63036100216FF300016FF351
:1035380041016FF382016FF3C501012363F3881121
:10354800CCF3090363F352216FF3DE416FF3DF71AC
:10355800002303480DF0A2FDDD4609E038030020F2
:10356800B00B0020EC1E0600CC1E0600F821060059
:10357800B24B1B6813F0070F3FD0EB4688B002A987
:103588006B4613F1180200F0E68110231AB1042BE0
:1035980001DDAB48486112B1082B00DD8D611AB11D
:1035A8000C2B01DDF120C8610F2B40F3D7811020CF
:1035B80052B10023042565F307036FF30F236FF35C
:1035C80017436FF31F630B6100216FF300016FF363
:1035D80041016FF382016FF3C501012363F3881181
:1035E80000F47D7363F352216FF3DE416FF3DF71F3
:1035F800002392480DF052FDDD46404080F31188CB
:103608004FF0030002DFBE2C40F29F808B4B1B68FB
:1036180013F0070F4BD002233B726D4688B00DF1B3
:10362800080C6B4613F1180200F09B810D2022B1A3
:10363800042802DD834BCCF8143002233B7222B1FC
:10364800082802DD804BCCF818302AB10CF11C0395
:103658000021002900F088810C2840F38E810D207C
:1036680062B10023032161F307036FF30F236FF3A4
:103678001743012161F31F63CCF8103000216FF369
:1036880000016FF341016FF382016FF3C50101235C
:1036980063F38811C0F3090363F352216FF3DE412A
:1036A8006FF3DF71002365480DF0F8FCAD46634BFE
:1036B8001B6813F0070F42D06D4688B002A96B460D
:1036C80013F1180200F05C8110231AB1042B01DDFC
:1036D8005B48486122B1082B02DD6FF00B0088615E
:1036E8001AB10C2B01DDF420C8610F2B40F34B817C
:1036F80010205AB100234FF0040C6CF307036FF34A
:103708000F236FF317436FF31F630B6100216FF3F0
:1037180000016FF341016FF382016FF3C5010123CB
:1037280063F3881100F47D7363F352216FF3DE4174
:103738006FF3DF71002341480DF0B0FCAD46404007
:1037480080F311884FF0030002DF2246494678696A
:103758005DF0F1FA7B6983F8C280C3F8BE40C3F814
:10376800C360C3F8C7A0CB2207F11401374807F09C
:1037780059FD044600283FF475AD304B1B6813F023
:10378800070F47D002233B726D4688B002AE6B46E6
:1037980013F1180200F0FA800D201AB1042801DD97
:1037A800284B736102233B721AB1082801DD284BAC
:1037B800B3612AB106F11C030021002900F0E98059
:1037C8000C2840F3EF800D205AB10023032161F348
:1037D80007036FF30F236FF31743012161F31F638F
:1037E800336100216FF300016FF341016FF3820130
:1037F8006FF3C501012363F38811C0F3090363F371
:1038080052216FF3DE416FF3DF7100230B480DF097
:1038180045FCAD46094B1B6813F0070F4DD06D46AC
:1038280088B002A96B4613F1180200F0BE8010237D
:1038380082B1042B0EDD024848610BE0B00B00207A
:10384800EC1E0600CC1E06001422060038030020D9
:103858003422060012B1082B00DD8C6122B10C2B3A
:1038680002DD4FF48070C8610F2B40F3A180102057
:1038780052B10023042464F307036FF30F236FF39B
:1038880017436FF31F630B6100216FF300016FF3A0
:1038980041016FF382016FF3C501012363F38811BE
:1038A80000F47D7363F352216FF3DE416FF3DF7130
:1038B800002341480DF0F2FBAD46404080F31188EB
:1038C8004FF0030002DFCDE46FF00041EBE46FF04E
:1038D8001B00FDE4394BFB620222002362F307035D
:1038E8006FF30F236FF317436FF31F63BB6200215E
:1038F8006FF300016FF341016FF382016FF3C501AC
:1039080062F38811082363F352216FF3DE416FF3EA
:10391800DF71002307F1280227480DF0BFFB0DE5F2
:103928006FF0004125E56FF01B0037E56FF00041AF
:1039380075E56FF01B0087E56FF0004CCCE507F1EB
:10394800300E8E441EF828EC03F801EB0131D5E562
:103958006FF01B0CDBE56FF0004317E66FF01B0000
:1039680026E66FF0004062E607F1300E8E441EF83E
:1039780028EC03F801EB01316BE66FF01B006FE6F2
:103988006FF00043A1E66FF01B00B2E66FF0004055
:1039980003E707F1300C8C441CF828CC03F801CB62
:1039A80001310AE76FF01B000EE76FF000433FE7B5
:1039B8006FF01B005CE700BFB00B0020E42106009D
:1039C800B0B582B000AF884807F0D2FD002800F0FB
:1039D8009D800446854B1B6813F0070F4CD00223CB
:1039E8003B716D4688B06B4613F1100200F0E18020
:1039F8004FF00D0C22B1BCF1040F01DD7C49596177
:103A08000221397122B1BCF1080F01DD79499961B0
:103A18002AB103F11C010020002800F0CD80BCF180
:103A28000C0F40F3D2800D206AB100214FF0030C37
:103A38006CF307016FF30F216FF317414FF0010C7F
:103A48006CF31F61196100216FF300016FF34101ED
:103A58006FF382016FF3C501012363F38811C0F38B
:103A6800090363F352216FF3DE416FF3DF71002323
:103A78005E480DF013FBAD465C4B1B6813F0070F57
:103A88003ED06D4688B06B4613F1100200F0A0805E
:103A980010211AB1042901DD5748586112B10829CB
:103AA80000DD9C611AB10C2901DD2E20D8610F2997
:103AB80040F39180102052B10021042464F30701DF
:103AC8006FF30F216FF317416FF31F611961002125
:103AD8006FF300016FF341016FF382016FF3C501CA
:103AE800012363F3881100F47D7363F352216FF3AC
:103AF800DE416FF3DF7100233C480DF0CFFAAD468D
:103B0800404080F311884FF0030002DFFFF77EFB8F
:103B18000146002847D0354B1B6813F0070F3CD0EF
:103B28006C4688B06B4613F1100257D010201AB1BA
:103B3800042801DD304D5D6112B1082800DD99616E
:103B48001AB10C2801DD3121D9610F2849DD102077
:103B580052B10021042565F307016FF30F216FF3BC
:103B680017416FF31F61196100216FF300016FF3B3
:103B780041016FF382016FF3C501012363F38811DB
:103B880000F47D7363F352216FF3DE416FF3DF714D
:103B9800002316480DF082FAA546404080F31188AC
:103BA8004FF0030002DF0020144B18700837BD46A1
:103BB800B0BD6FF0004C1DE707F1080E86441EF8F3
:103BC80004EC01F801EB013026E76FF01B002BE74E
:103BD8006FF000415DE76FF01B006CE76FF000408D
:103BE800A5E76FF01B00B3E738030020B00B0020F7
:103BF800CC1E06004C220600EC1E06003E210120C9
:103C0800B0B59AB000AF4FF0FF324FF0FF33F91D57
:103C1800BB483BF0D9FBFB79032B00F22F81DFE88F
:103C280013F004003C00C6000001B64B1B6803F00B
:103C38000703022B0AD8B44B1B78052B02D0002BA4
:103C480040F0BF80B04B01221A70BAE0AF4B7B66E0
:103C58000023022262F307036FF30F236FF3174366
:103C68006FF31F633B6600216FF300016FF341019F
:103C78006FF382016FF3C501032363F388110823EF
:103C880063F352216FF3DE416FF3DF71002307F115
:103C980060029C480DF002FACDE79A4B1B6803F0CE
:103CA8000703022B48D8984B19784B1EDBB2012B1F
:103CB80069D903296BD004296FD0924B1B6813F084
:103CC800070F7ED06C4688B06B4613F1100268D09F
:103CD8000C201AB1042801DD8D4D5D6112B1082850
:103CE80000DD99610B285FDD0C205AB100214FF0EF
:103CF800030C6CF307016FF30F216FF317416FF398
:103D08001F61196100216FF300016FF341016FF327
:103D180082016FF3C501012363F3881100F47B73FB
:103D280063F352216FF3DE416FF3DF7100237548AF
:103D38000DF0B4F9A54644E0764BFB64002302225B
:103D480062F307036FF30F236FF317436FF31F63D8
:103D5800BB6400216FF300016FF341016FF382012F
:103D68006FF3C501032363F38811082363F352211A
:103D78006FF3DE416FF3DF71002307F148026148FA
:103D88000DF08CF98FE7604B05221A7019E05E4B35
:103D980005221A70FEF7DCFF13E05B4B05221A7050
:103DA8000FE06FF0004094E76FF01B009DE7554B64
:103DB8001B6803F00703022B06D8534B1B78012B13
:103DC80029D06837BD46B0BD534B7B630023022220
:103DD80062F307036FF30F236FF317436FF31F6348
:103DE8003B6300216FF300016FF341016FF3820120
:103DF8006FF3C501032363F38811082363F352218A
:103E08006FF3DE416FF3DF71002307F130023D48A5
:103E18000DF044F9D1E7FEF7B5FE3B4B03221A70CB
:103E2800CFE7384B1B6803F00703022BC9D93B4B7C
:103E3800FB610023022262F307036FF30F236FF382
:103E480017436FF31F63BB6100216FF300016FF32A
:103E580041016FF382016FF3C501032363F38811F6
:103E6800082363F352216FF3DE416FF3DF71002300
:103E780007F1180223480DF011F9A2E7214A126848
:103E880012F0060F9DD06C4688B0694611F11002F9
:103E980033D16FF000401AB1042801DD204D4D6187
:103EA80012B1082800DD8B610B283BDD0C2052B1D4
:103EB8000023032565F307036FF30F236FF31743FD
:103EC8006FF31F630B6100216FF300016FF3410172
:103ED8006FF382016FF3C501022363F3881100F4C5
:103EE8007B7060F352216FF3DE416FF3DF710023C3
:103EF80004480DF0D3F8A54663E70C20CBE700BFD4
:103F0800280E0020B00B00203E2101206C22060064
:103F18009822060080220600B8220600CC2206005D
:103F2800E02206006FF01B00C1E700BF00B589B0B2
:103F38008DF807001E4B1A695B6A9A420AD0002264
:103F480000230DF107011A483BF08AF9002009B057
:103F58005DF804FB174B1B6813F0060F02D16FF0D6
:103F68000B00F4E7144B07930222002362F30703C4
:103F78006FF30F236FF317436FF31F63069300214B
:103F88006FF300016FF341016FF382016FF3C50115
:103F980062F38811082363F352216FF3DE416FF354
:103FA800DF71002306AA03480DF078F8D7E700BFB1
:103FB800280E0020B00B0020002306002C4B1B7895
:103FC800032B00D07047B0B500AF022206F036FCD4
:103FD8000446002841D0274B1B6883423DD0264B1E
:103FE8001B6813F0060F38D06D4688B06B4613F186
:103FF800100236D00C211AB1042901DD1F4858617E
:1040080012B1082900DD9C610B292DDD0C205AB165
:1040180000214FF0030C6CF307016FF30F216FF3CE
:1040280017416FF31F61196100216FF300016FF3EE
:1040380041016FF382016FF3C501022363F3881115
:1040480000F47B7363F352216FF3DE416FF3DF718A
:10405800002309480DF022F8AD46064B1C60BD460A
:10406800B0BD6FF00041C6E76FF01B00CFE700BF9F
:104078003E210120F8350020B00B00203023060037
:1040880010284CD018284CD020284CD0284B1B681E
:1040980013F0070F49D0B0B500AF6C4688B06B4637
:1040A80013F1100235D00C211AB1042901DD214D7C
:1040B8005D6112B1082900DD98610B292CDD0C2007
:1040C8005AB100214FF0030C6CF307016FF30F2175
:1040D8006FF317416FF31F61196100216FF300013E
:1040E8006FF341016FF382016FF3C501012363F39D
:1040F800881100F47B7363F352216FF3DE416FF391
:10410800DF7100230A480CF0C9FFA5460020BD4610
:10411800B0BD6FF00041C7E76FF01B00D0E701208A
:10412800704701207047012070470020704700BF8A
:10413800B80B00206823060001FB02F2B0FBF2F185
:1041480002FB11020AB901207047254B1B6813F0C6
:10415800070F43D0B0B500AF6C4688B06B4613F17B
:10416800100235D00C211AB1042901DD1D4D5D6105
:1041780012B1082900DD98610B292CDD0C205AB1F9
:1041880000214FF0030C6CF307016FF30F216FF35D
:1041980017416FF31F61196100216FF300016FF37D
:1041A80041016FF382016FF3C501012363F38811A5
:1041B80000F47B7363F352216FF3DE416FF3DF7119
:1041C800002307480CF06AFFA5460020BD46B0BD95
:1041D8006FF00041C7E76FF01B00D0E70020704781
:1041E800B80B0020802306002DE9F041ADF5F96DEC
:1041F80004AF04460D4690461E464FF4F062002177
:1042080007F108005CF0D1FDB24B1B79002B49D0B7
:10421800B04B1B78012B76D0022B00F01981AE4AE7
:10422800126812F0070F00F051816C4688B004AD97
:104238006A46203200F044810C211AB1042901DDBC
:10424800A648686112B1082900DDAB610B2940F36B
:104258003A810C2052B10023032161F307036FF365
:104268000F236FF317436FF31F632B6100216FF365
:1042780000016FF341016FF382016FF3C501012360
:1042880063F3881100F47B7363F352216FF3DE410B
:104298006FF3DF71002390480CF000FFA5466FF024
:1042A8001204DCE08C4B1B6813F0070F02D16FF08F
:1042B8000504D4E08A4BC7F8B4370023022262F31E
:1042C80007036FF30F236FF317436FF31F63C7F8E9
:1042D800B03700216FF300016FF341016FF38201E2
:1042E8006FF3C501012363F38811082363F3522197
:1042F8006FF3DE416FF3DF71002307F5F66276484E
:104308000CF0CCFED3E73B1D019307F572730093C5
:1043180007F1080310222946204651F0C4F8044644
:10432800002840F09C806B4B1B7B012B42D0022B5A
:104338005BD0694A126812F0070F00F086806C465D
:1043480088B004AD6A46203275D00C211AB1042910
:1043580001DD6448686112B1082900DDAB610B29F1
:104368006CDD0C2052B10023032161F307036FF3C6
:104378000F236FF317436FF31F632B6100216FF354
:1043880000016FF341016FF382016FF3C50101234F
:1043980063F3881100F47B7363F352216FF3DE41FA
:1043A8006FF3DF7100234C480CF078FEA5466FF0E0
:1043B800120454E0474B587BC0EB00107968BB1CD3
:1043C8000293494B0193F023009300231A4607F107
:1043D800080505EB801011F055FC002831D1424B3F
:1043E800C8F800307B88336039E07968BB1C0293D9
:1043F8003D4B0193F023009300231A4607F1080070
:1044080011F040FC08B1044629E0BA1C7B887968A1
:104418000292354A1A440192C3F1F0039BB2009309
:104428000123002207F5727011F02CFC58B97B8823
:104438005B007B80D3E76FF0004187E76FF01B00DC
:1044480090E704460BE0044609E06FF0120406E02A
:10445800214B1B6813F0070F07D16FF01204204699
:1044680007F5F767BD46BDE8F081204BC7F89C37D4
:104478000023022262F307036FF30F236FF317433E
:104488006FF31F63C7F8983700216FF300016FF3CC
:1044980041016FF382016FF3C501012363F38811B2
:1044A800082363F352216FF3DE416FF3DF710023BA
:1044B80007F5F36208480CF0F1FD6FF01204CEE73F
:1044C8006FF00041B9E66FF01B00C3E66FF012040D
:1044D800C5E700BFFC350020B80B002020240600EB
:1044E800CC230600F0230600103600201024060016
:1044F80084B0B0B598B000AF07F1700484E80F003D
:104508009B4B1B7897F87020934247D1012B74D0AE
:10451800022B00F0EC80974A126812F0070F00F0A7
:1045280024816C4688B0694611F1100200F01581AB
:104538000C201AB1042801DD8F4D4D6112B10828F5
:1045480000DD8B610B2840F30B810C205AB100234E
:104558004FF0030C6CF307036FF30F236FF317434C
:104568006FF31F630B6100216FF300016FF34101CB
:104578006FF382016FF3C501012363F3881100F41F
:104588007B7363F352216FF3DE416FF3DF71002316
:1045980078480CF083FDA5460020AFE0754B1B68FA
:1045A80013F0070F02D16FF01200A7E0734BFB6501
:1045B8000023022262F307036FF30F236FF31743FD
:1045C8006FF31F63BB6500216FF300016FF34101B7
:1045D8006FF382016FF3C501012363F38811082388
:1045E80063F352216FF3DE416FF3DF71002307F1AC
:1045F800580260480CF052FDD5E797F874304BB17B
:104608005B4B1B79B3B111F03FFC002876D1584BB6
:1046180000221A7197F87130002B00F0A480544BD7
:104628005B78B3B311F098FC002867D1504B002297
:104638005A7063E04F4B1B6813F0070F02D16FF0FD
:1046480077005BE04E4BFB620023022262F3070314
:104658006FF30F236FF317436FF31F63BB620021E0
:104668006FF300016FF341016FF382016FF3C5012E
:10467800012363F38811082363F352216FF3DE41AA
:104688006FF3DF71002307F128023A480CF006FDAA
:10469800D5E7384B1B6813F0060F02D16FF077008F
:1046A8002CE0384B7B640222002362F307036FF38C
:1046B8000F236FF317436FF31F633B6400216FF3FE
:1046C80000016FF341016FF382016FF3C50162F3DB
:1046D8008811082363F352216FF3DE416FF3DF7112
:1046E800002307F1400223480CF0D8FCD6E7214B01
:1046F8001B6813F0070F07D16FF012006037BD4633
:10470800BDE8B04004B070471F4B7B610023022214
:1047180062F307036FF30F236FF317436FF31F63FE
:104728003B6100216FF300016FF341016FF38201D8
:104738006FF3C501012363F38811082363F3522142
:104748006FF3DE416FF3DF71002307F110020948B0
:104758000CF0A4FC6FF01200D0E76FF00040E8E620
:104768006FF01B00F2E60020C8E70020C6E700BF94
:10477800FC350020B80B0020202406003824060051
:1047880070240600A82406001024060084B090B502
:1047980097B002AF07F1600484E80F0097F8603023
:1047A800012B48D0022B00F0E1808F4A126812F0EA
:1047B800070F00F017816C4688B00DF1080C6A46A7
:1047C800183200F009810C2122B1042902DD874842
:1047D800CCF814001AB1082901DDCCF818300B29DF
:1047E80040F3FD800C205AB10023032161F3070335
:1047F8006FF30F236FF317436FF31F63CCF8103079
:1048080000216FF300016FF341016FF382016FF331
:10481800C501012363F3881100F47B7363F352210C
:104828006FF3DE416FF3DF7100236F480CF036FC45
:10483800A5460020A1E06E4B1B78012B0ED197F8FE
:104848006430002B48D06A4B1B79B3B3664B1B68A6
:1048580013F0060F0BD16FF077008EE042F2107262
:104868000021084611F0E0FB0028E8D085E0614B04
:104878007B630222002362F307036FF30F236FF3B6
:1048880017436FF31F633B6300216FF300016FF35E
:1048980041016FF382016FF3C50162F388110823A8
:1048A80063F352216FF3DE416FF3DF71002307F1E9
:1048B80030024D480CF0F2FBCDE7BB6E97F86C2048
:1048C800B91D0191009242F2107210214BF680300E
:1048D80011F012FC002850D197F861306BB1444BAD
:1048E8005B78ABB997F8623042F2107210214BF640
:1048F800803011F0F3FD00283FD13D4C07F1600CEA
:10490800BCE80F000FC4DCF800302360002034E05E
:10491800354B1B6813F0060F02D16FF077002CE0BF
:10492800354BFB640222002362F307036FF30F2366
:104938006FF317436FF31F63BB6400216FF300012C
:104948006FF341016FF382016FF3C50162F38811C0
:10495800082363F352216FF3DE416FF3DF71002305
:1049680007F1480220480CF099FBD6E71E4B1B685C
:1049780013F0070F07D16FF012005437BD46BDE89A
:10498800904004B070471D4BFB610023022262F384
:1049980007036FF30F236FF317436FF31F63BB61B5
:1049A80000216FF300016FF341016FF382016FF390
:1049B800C501012363F38811082363F352216FF3C0
:1049C800DE416FF3DF71002307F1180206480CF08F
:1049D80065FB6FF01200D0E76FF00041F4E66FF06E
:1049E8001B0000E70020C8E7B80B002020240600C1
:1049F800FC350020E02406000825060030250600C6
:104A08000023024A1360024A1360704700370020EF
:104A18000437002070B50D460446B0B10DB3636885
:104A28006BB1164E182332461549164851F098FABC
:104A3800154851F095FA1821304651F08AFA134B6F
:104A48001A68626025601C6070BD0C4E16233246E1
:104A58000F490C4851F084FA1621304651F079FA82
:104A6800DCE7064E172332460A49064851F078FA21
:104A78001721304651F06DFAD1E700BF80250600B6
:104A8800F4250600BC250600142606000837002079
:104A9800A0250600DC25060009490A68094B1B68A1
:104AA80013440B60934209D210B5074B1C6802E00F
:104AB800236898476468002CFAD110BD704700BF7E
:104AC800003700200437002008370020F8B500AF71
:104AD8000446002A00F098801546954B1B6813F091
:104AE800070F3ED06E4688B06B4613F110027FD098
:104AF80010202AB1042803DDDFF848C2C3F814C027
:104B080012B1082800DD996112B10C2800DDDD61C1
:104B18000F2870DD10205AB100214FF0040C6CF3FF
:104B280007016FF30F216FF317416FF31F611961CD
:104B380000216FF300016FF341016FF382016FF3FE
:104B4800C501012363F3881100F47D7363F35221D7
:104B58006FF3DE416FF3DF71002375480CF09EFAA6
:104B6800B5462946204654F04AFB0146002800F085
:104B78008D806F4B1B6813F0070F00F087806D4620
:104B880088B06B4613F1100238D00C201AB10428F3
:104B980001DD684E5E6112B1082800DD99610B28BD
:104BA8002FDD0C2052B10021032666F307016FF3B5
:104BB8000F216FF317416FF31F61196100216FF324
:104BC80000016FF341016FF382016FF3C501012307
:104BD80063F3881100F47B7363F352216FF3DE41B2
:104BE8006FF3DF71002352480CF058FAAD464DE0E0
:104BF8006FF000407DE76FF01B008CE76FF000401E
:104C0800C4E76FF01B00CDE7494B1B6813F0040F96
:104C18003CD06D4688B06B4613F110027BD0102053
:104C28001AB1042801DD444E5E611AB1082801DD7D
:104C3800424E9E6112B10C2800DDD9610F286DDD4E
:104C4800102052B10021042666F307016FF30F21EB
:104C58006FF317416FF31F61196100216FF30001B2
:104C68006FF341016FF382016FF3C501042363F30E
:104C7800881100F47D7363F352216FF3DE416FF303
:104C8800DF7100232A480CF009FAAD46204601F0EE
:104C9800FDFD014600283CD0254B1B6813F0060F8C
:104CA80037D06C4688B06B4613F1100239D00C200F
:104CB8001AB1042801DD224D5D6112B1082800DD1A
:104CC80099610B2830DD0C2052B10021032565F3D2
:104CD80007016FF30F216FF317416FF31F6119611C
:104CE80000216FF300016FF341016FF382016FF34D
:104CF800C501022363F3881100F47B7363F3522127
:104D08006FF3DE416FF3DF71002309480CF0C6F939
:104D1800A546BD46F8BD6FF0004081E76FF01B0067
:104D28008FE76FF00040C3E76FF01B00CCE700BFD0
:104D3800F80A00207026060088260600902806003B
:104D4800A82606004C2606002DE9F04100AF0C46C7
:104D580016461D46744B1B6813F0040F47D0E846EF
:104D68008AB06B4613F1100200F0CB8014212AB1EF
:104D7800042903DDDFF8C0C1C3F814C02AB108292B
:104D880003DDDFF8ACC1C3F818C012B10C2900DD8F
:104D9800D86112B1102900DD1C62132940F3B480D8
:104DA80014205AB100214FF0050C6CF307016FF382
:104DB8000F216FF317416FF31F61196100216FF322
:104DC80000016FF341016FF382016FF3C501042302
:104DD80063F3881100F47D7363F352216FF3DE41AE
:104DE8006FF3DF71002350480CF058F9C5464E4B5D
:104DF8001B6813F0040F41D0E8468AB06B4613F1E4
:104E0800100200F0848014211AB1042901DD4748FA
:104E180058611AB1082901DD4548986112B10C2979
:104E280000DDDE6112B1102900DD1D62132971DD7C
:104E3800142052B10021052565F307016FF30F21F6
:104E48006FF317416FF31F61196100216FF30001C0
:104E58006FF341016FF382016FF3C501042363F31C
:104E6800881100F47D7363F352216FF3DE416FF311
:104E7800DF7100232C480CF011F9C546642C3DD88D
:104E8800294B1B6813F0040F38D06C4688B06B466A
:104E980013F1100241D00C211AB1042901DD254873
:104EA80058611AB1082901DD214898610B2937DDBD
:104EB8000C2052B10021032565F307016FF30F2180
:104EC8006FF317416FF31F61196100216FF3000140
:104ED8006FF341016FF382016FF3C501042363F39C
:104EE800881100F47B7363F352216FF3DE416FF393
:104EF800DF7100230C480CF0D1F8A546BD46BDE88B
:104F0800F0816FF0004132E76FF01B0049E76FF066
:104F1800004179E76FF01B008BE76FF00041BBE7BA
:104F28006FF01B00C5E700BFF80A0020E426060062
:104F380074280600F8260600CC2606002DE9F04F56
:104F480095B006AF8346884654F057F9044603786F
:104F5800032B00F29580DFE803F0027D858C614B1E
:104F680093E80300B860B981090CB973A379627931
:104F78002179E07894F802C094F801E007F1080478
:104F88000594CDF810E0CDF80CC002900191009284
:104F9800554A1E2107F1180050F0EEFB534B1B68D1
:104FA80013F0040F54D003233B726C468AB00DF102
:104FB800180C6B4613F1280269D0152122B1042977
:104FC80002DD4B4BCCF8143022B1082902DD494BE5
:104FD800CCF8183003233B722AB10C2903DD07F102
:104FE8001803CCF81C301AB1102901DDCCF8208048
:104FF80022B10CF12403002000284BD0142952DDE3
:10500800152062B10023052161F307036FF30F2315
:105018006FF31743012161F31F63CCF810300021AF
:105028006FF300016FF341016FF382016FF3C50164
:10503800042363F38811C0F3090363F352216FF368
:10504800DE416FF3DF71002328480CF027F8A546EE
:1050580000248EE0284B93E80300B860B981090C5E
:10506800B97383E7254A07F1080307CA03C31A80FF
:105078007CE7234A07F1080307CA03C31A8075E7C8
:10508800204A0A2107F1080050F076FB6EE76FF01E
:10509800004193E707F1380E86441EF830EC03F818
:1050A80001EB0130A8E76FF01B00AAE76FF000439F
:1050B8007CE000F11C014FF0000CBCF1000F40F047
:1050C800848007F1380EE6441EF830EC01F801EB55
:1050D8000CF1010CF1E76FF01B0379E06FF000436E
:1050E800ACE000BF1C2706002C270600F80A0020A9
:1050F800502706006028060024270600CC27060053
:10510800D8270600A89F06000F2B40F3AA8010237B
:1051180052B1042060F3070A6FF30F2A6FF3174A9E
:105128006FF31F6AC1F810A06FF300066FF3410612
:105138006FF382066FF3C506012161F3881603F445
:105148007D7363F352266FF3DE466FF3DF76002339
:10515800314645480BF0A2FFD7F800D0404080F315
:1051680011884FF0030002DF7869834500F08480DE
:105178000134012C00F36F815FFA84F807F1140100
:10518800404600F00FFD78600028EDD0364B1B68D4
:1051980013F0070F43D002233B72C7F800D088B042
:1051A80006A86B4613F1280280D00D231AB1042BF0
:1051B80001DD2E494161022139721AB1082B01DD46
:1051C8002B498161002A7FF474AF0C2B83DD0D23FA
:1051D8005AB1032161F307096FF30F296FF31749D8
:1051E800012161F31F69C0F810906FF300056FF398
:1051F80041056FF382056FF3C505012161F3881539
:10520800C3F3090363F352256FF3DE456FF3DF75CC
:105218000023294614480BF041FFD7F800D0124B61
:105228001B6813F0070F99D0C7F800D088B006A9FB
:105238006B4613F128023FF451AF10231AB1042B27
:1052480001DD0C4848611AB1082B01DD78688861D6
:10525800002A3FF459AF0C2B7FF756AF8720C8615F
:1052680052E76FF01B0353E7F80A0020CC1E060034
:1052780078270600EC1E06001BF052FA00237B611B
:1052880007F11401404600F0B1FC0546002800F083
:105298009C80824B1B6813F0070F4BD002233B7294
:1052A8006E4688B00DF1180C6B4613F1280200F019
:1052B800D9800D2022B1042802DD794BCCF81430B6
:1052C80002233B7222B1082802DD764BCCF8183055
:1052D8002AB10CF11C030021002900F0C6800C281B
:1052E80040F3CC800D2062B10023032161F3070352
:1052F8006FF30F236FF31743012161F31F63CCF89A
:10530800103000216FF300016FF341016FF3820148
:105318006FF3C501012363F38811C0F3090363F335
:1053280052216FF3DE416FF3DF7100235B480BF00E
:10533800B5FEB546594B1B6813F0070F3FD06E46B4
:1053480088B006A96B4613F1280200F09A80102352
:105358001AB1042B01DD5448486112B1082B00DD55
:105368008D611AB10C2B01DD8C20C8610F2B40F325
:105378008B80102052B10023042565F307036FF3D7
:105388000F236FF317436FF31F630B6100216FF354
:1053980000016FF341016FF382016FF3C50101232F
:1053A80063F3881100F47D7363F352216FF3DE41D8
:1053B8006FF3DF71002339480BF070FEB5464040AB
:1053C80080F311884FF0030002DF344B1B6813F0A1
:1053D800040F3DD06D4688B006A86B4613F128022D
:1053E80055D010231AB1042B01DD304941611AB19F
:1053F800082B01DD2E49816112B10C2B00DDC4613F
:105408000F2B47DD102352B10021042464F3070158
:105418006FF30F216FF317416FF31F6101610021D3
:105428006FF300016FF341016FF382016FF3C50160
:10543800042060F3881103F47D7363F352216FF342
:10544800DE416FF3DF71002314480BF027FEAD46F1
:10545800584601F0C9F917483BF02EF83C37BD46CD
:10546800BDE8F08F6FF0004024E707F1380E8E4456
:105478001EF830EC03F801EB01312DE76FF01B004B
:1054880031E76FF0004363E76FF01B0072E76FF0DE
:105498000043A7E76FF01B03B5E700BFF80A002039
:1054A800CC1E060094270600EC1E0600B027060056
:1054B80060280600BC030020F0B593B006AF06468E
:1054C8000D4653F09AFE04460378032B00F28B80B6
:1054D800DFE803F002757D834D4B93E803007860A5
:1054E8003981090CB972A37962792179E07894F845
:1054F80002C0647807F1040ECDF814E00494CDF8E6
:105508000CC0029001910092424A1E2107F110003E
:1055180050F032F9002D00F08B803F4B1B6813F0E0
:10552800070F49D002233B716C468AB006AE6B4622
:1055380013F128025DD011201AB1042801DD374B80
:10554800736102233B7122B1082802DD07F11003C1
:10555800B36112B10C2800DDF56122B106F1200318
:105568000021002948D010284FDD11205AB100230E
:10557800042161F307036FF30F236FF3174301212E
:1055880061F31F63336100216FF300016FF3410181
:105598006FF382016FF3C501012363F38811C0F330
:1055A800090363F352216FF3DE416FF3DF710023C8
:1055B80019480BF073FDA5463437BD46F0BD184BAE
:1055C80093E8030078603981090CB9728BE7154AB2
:1055D8003B1D07CA03C31A8085E7134A3B1D07CA48
:1055E80003C31A807FE7114A0A21381D50F0C4F816
:1055F80079E76FF000409FE707F130050D4415F893
:105608002C5C03F8015B0131ABE76FF01B00ADE7E1
:105618001C2706002C270600F80A0020E4270600AD
:1056280024270600CC270600D8270600A89F0600D6
:105638008C4B1B6813F0040F4DD003233B716C4651
:105648008AB006AD6B4613F1280200F0E6801120FF
:105658001AB1042801DD844B6B611AB1082801DDF9
:10566800824BAB6103233B7122B10C2802DD07F1A9
:105678001003EB612AB105F120030021002900F095
:10568800CF80102840F3D58011205AB1002304217F
:1056980061F307036FF30F236FF31743012161F3DE
:1056A8001F632B6100216FF300016FF341016FF35A
:1056B80082016FF3C501042363F38811C0F3090362
:1056C80063F352216FF3DE416FF3DF710023654806
:1056D8000BF0E4FCA546304601F034F802213046D0
:1056E80053F015FD044600283FF466AF5D4B1B6878
:1056F80013F0070F47D002233B716D4688B006AE02
:105708006B4613F1280200F097800D201AB1042887
:1057180001DD574B736102233B711AB1082801DD83
:10572800544BB3612AB106F11C030021002900F093
:1057380086800C2840F38C800D205AB10023032169
:1057480061F307036FF30F236FF31743012161F32D
:105758001F63336100216FF300016FF341016FF3A1
:1057680082016FF3C501012363F38811C0F30903B4
:1057780063F352216FF3DE416FF3DF710023394881
:105788000BF08CFCAD46374B1B6813F0070F3DD070
:105798006D4688B006A96B4613F128025BD010232A
:1057A8001AB1042B01DD3448486112B1082B00DD21
:1057B8008C611AB10C2B01DD6A20C8610F2B4DDDFD
:1057C800102052B10023042464F307036FF30F235E
:1057D8006FF317436FF31F630B6100216FF3000131
:1057E8006FF341016FF382016FF3C501012363F386
:1057F800881100F47D7363F352216FF3DE416FF378
:10580800DF71002317480BF049FCAD46404080F398
:1058180011884FF0030002DFCEE66FF0004017E773
:1058280007F1300C8C441CF82CCC03F801CB013167
:1058380024E76FF01B0028E76FF0004066E707F1E8
:10584800300C8C441CF82CCC03F801CB01316DE7EB
:105858006FF01B0071E76FF00043A1E76FF01B00CA
:10586800AFE700BFF80A00200C2806004C28060005
:10587800CC1E060034280600EC1E060008B50248B7
:105888003AF01AFE08BD00BFBC03002008B5034863
:105898001BF094FB01F050FC08BD00BFA0030020E2
:1058A800B0B586B000AF07F1040C4D4C0FCCACE896
:1058B8000F002368CCF800304A49381D19F038FD2C
:1058C800002841D1484B1B6813F0040F39D06C46AF
:1058D80088B06B4613F110027CD00C211AB1042950
:1058E80001DD424858611AB1082901DD4048986134
:1058F8000B2972DD0C205AB100214FF0030C6CF318
:1059080007016FF30F216FF317416FF31F611961DF
:1059180000216FF300016FF341016FF382016FF310
:10592800C501042363F3881100F47B7363F35221E8
:105938006FF3DE416FF3DF7100232B480BF0AEFBF2
:10594800A5461837BD46B0BD0346274A126812F06F
:10595800060FF6D06C4688B0694611F1100233D0B4
:105968000C201AB1042801DD224D4D6112B108281E
:1059780000DD8B610B282ADD0C205AB100234FF083
:10598800030C6CF307036FF30F236FF317436FF3E5
:105998001F630B6100216FF300016FF341016FF387
:1059A80082016FF3C501022363F3881100F47B734E
:1059B80063F352216FF3DE416FF3DF7100230A486E
:1059C8000BF06CFBA546BCE76FF00040C9E76FF031
:1059D8001B00D2E76FF0004180E76FF01B008AE7F9
:1059E800201C060033550500F80A0020F42806009C
:1059F800642B0600D028060010B5002409E0064BE9
:105A080053F82410003918BF0121204606F0D4FBB2
:105A18000134012CF3D910BD10370020B0B582B085
:105A280000AF01F075FB002800F09A800446594B3E
:105A38001B6813F0070F4BD002233B716D4688B0EB
:105A48006B4613F1100200F08F804FF00D0C22B15D
:105A5800BCF1040F01DD504959610221397122B1AD
:105A6800BCF1080F01DD4D49996122B103F11C0118
:105A7800002000287BD0BCF10C0F40F381800D2062
:105A88006AB100214FF0030C6CF307016FF30F218B
:105A98006FF317414FF0010C6CF31F61196100217E
:105AA8006FF300016FF341016FF382016FF3C501DA
:105AB800012363F38811C0F3090363F352216FF3E1
:105AC800DE416FF3DF71002332480BF0E7FAAD4691
